:020000040800F2
:10000000F04900204902000859170008A516000809
:10001000551700087D050008D12B000800000000DE
:10002000000000000000000000000000C51A0008E9
:10003000E1140008000000005F02000861020008EF
:1000400063020008630200086302000863020008FC
:1000500063020008630200086302000863020008EC
:1000600063020008630200086302000863020008DC
:1000700063020008630200086302000863020008CC
:1000800063020008630200086302000863020008BC
:10009000810500086302000863020008630200088B
:1000A00063020008311D00086302000863020008B3
:1000B0004D1D0008A11D00089D1E000863020008D8
:1000C000630200086302000863020008630200087C
:1000D0006302000815240008112500080126000805
:1000E000630200086302000863020008630200085C
:1000F000F11E0008630200086302000809120008EC
:100100006302000863020008D51E000863020008AD
:1001100063020008B92200086302000863020008B5
:10012000630200086302000863020008630200081B
:10013000630200086302000863020008630200080B
:10014000B5060008630200086302000863020008A5
:1001500063020008630200086302000863020008EB
:1001600063020008630200086302000863020008DB
:1001700063020008630200086302000863020008CB
:10018000630200086302000800F002F800F04CF877
:100190000AA090E8000C82448344AAF10107DA45E2
:1001A00001D100F041F8AFF2090EBAE80F0013F0E8
:1001B000010F18BFFB1A43F001031847DC5B000076
:1001C000FC5B00000A4410F8014B14F00F0508BF57
:1001D00010F8015B240908BF10F8014B6D1E05D013
:1001E00010F8013B6D1E01F8013BF9D1641E03D0EC
:1001F000641E01F8015BFBD19142E4D3704700001B
:100200000023002400250026103A28BF78C1FBD81F
:10021000520728BF30C148BF0B6070471FB505F0BB
:10022000D8FB1FBD10B510BD00F0C3F81146FFF795
:10023000F5FF04F0D7FB00F0E1F803B4FFF7F2FF9D
:1002400003BC00F0E5F80000094880470948004772
:10025000FEE7FEE7FEE7FEE7FEE7FEE7FEE7FEE776
:10026000FEE7FEE704480549054A064B70470000D3
:10027000C91C000889010008F0030020F049002093
:10028000F0450020F045002040EA010370B59B07CF
:100290002ED14FF00136042A2AD308C810C99D1B5D
:1002A0009D43121F15EAC61517D0D8B2E1B2401A05
:1002B00050EA056110D198B2A1B2401A50EA054146
:1002C0000AD123F07F4024F07F41401A50EA0521F3
:1002D00002D1180EA0EB146070BDA342DBD018BA97
:1002E00021BA884201D9012070BD4FF0FF3070BDA6
:1002F0000AB9002070BD10F8013B11F8014B63B141
:10030000A3420AD1521E08D010F8013B11F8014B4C
:100310001BB1A34201D1521EEDD1181B70BD10B507
:10032000203AC0F00B80B1E81850203AA0E81850ED
:10033000B1E81850A0E81850BFF4F5AF5FEA027CAE
:1003400024BFB1E81850A0E8185044BF18C918C01D
:10035000BDE810405FEA827C24BF51F8043B40F8BE
:10036000043B08BF7047D20728BF31F8023B48BFA3
:1003700011F8012B28BF20F8023B48BF00F8012BE1
:10038000704770477047704710B500F00DF800686F
:1003900010BD10B5044600F007F8046010BD000061
:1003A000004870478C030020004870478C030020F1
:1003B00070477546FFF7F4FFAE46050069465346A1
:1003C00020F00700854618B020B5FFF74BFFBDE8C9
:1003D00020404FF000064FF000074FF000084FF0AC
:1003E000000B21F00701AC46ACE8C009ACE8C0093D
:1003F000ACE8C009ACE8C0098D46704710B50446AA
:10040000AFF300802046BDE81040FFF716BF0000A4
:1004100001491820ABBEFEE72600020021B1826828
:1004200042F00102826003E0826822F001028260F1
:10043000704700000021084A1168084A1140D0E9BD
:1004400000231A4383681A43C3681A431143044ABA
:10045000C2F804137047000004230140E030FCFFA1
:100460000020014030B50246002000235068104CA7
:1004700020400D790C6844EA0524204350609068C0
:100480000C4C2040D1E903542C438D682C434D790A
:1004900044EA450420439060D06A20F470000C7D4B
:1004A000641EE4B2234340EA0350D06230BD000032
:1004B000FFFEFFFCFDF7FFC000B58DB00121042059
:1004C00001F03CFA0121080201F068FA30200B909B
:1004D00003208DF8300000208DF833000BA916485A
:1004E00001F068F80121080201F068FA00214FF4D8
:1004F000807001F063FA002007900A9009904FF491
:100500008030089007A8FFF795FF002001908DF834
:1005100008008DF8090003900490059001208DF8E3
:10052000180001A90548FFF79DFF01210348FFF7C7
:1005300075FF0DB000BD0000000802400020014022
:100540001CB50121102001F0F9F980200090012054
:100550008DF8040000208DF8060003208DF80500BA
:1005600002208DF807006946034801F023F8802136
:10057000014801F093F81CBD0010024000BFFEE7E7
:1005800010B53F4803783F4A3F49404800F0AEFC71
:100590003D480068302803D13A49087804F046FB0A
:1005A0003948006840F28721884215D135480068F3
:1005B00045F6500188420FD1324890ED010AB8EE5D
:1005C000C00ADFED330A20EE200ADFED320A80EEAA
:1005D000201A314880ED061A2B480068B0F5227FBA
:1005E0000DD12848006845F65601884207D12548B4
:1005F00090ED010AB8EEC00A274880ED680A22484B
:10060000006840F2862188420DD11E48006845F6F8
:100610005001884207D11B4890ED010AB8EEC00A8C
:100620001D4880ED0B0A1D49184800F0B1F81B4920
:10063000491C164800F0ACF81849C91C134800F0D2
:10064000A7F81749114800F0A3F816490F4800F021
:100650009FF815490D4800F09BF8134908310B48E5
:1006600000F096F81149094800F092F8104907483F
:1006700000F08EF80E490831044800F089F810BDEA
:10068000AC000020A4000020B00000200064004066
:100690000000B442000080453C0100200100F01041
:1006A0007000F03003000012080000320300001454
:1006B000080000341CB52C4803786A462B492C48A6
:1006C00000F014FC2948006840F2822188420BD1D6
:1006D00045F656010098884206D19DED010AB8EE14
:1006E000C00A244880ED180A2048006840F28121A1
:1006F00088420BD145F656010098884206D19DEDFF
:10070000010AB8EEC00A1B4880ED1B0A1A491848B6
:1007100000F03EF81849491C154800F039F8164910
:10072000C91C134800F034F81449114800F030F89F
:1007300013490F4800F02CF812490D4800F028F832
:10074000104908310A4800F023F80F49084800F022
:100750001FF80E49064800F01BF80C490831044800
:1007600000F016F81CBD0000B8000020B400002006
:10077000006800403C0100200100F0107000F030E3
:1007800003000012080000320300001408000034C7
:1007900000220C4B994202D10023836111E0C1F386
:1007A000130201F000730BB1C2600AE001F0806334
:1007B0000BB1026105E001F000630BB1826000E063
:1007C000426070477000F0302DE9F04F8BB0064664
:1007D0000F4614461D46DDF850804FF00009CA460A
:1007E000CB46B5F5807F43D012DC102D34D008DC29
:1007F000012D25D0022D26D0042D27D0082D4FD134
:1008000027E0202D2BD0402D2CD0802D48D12CE05E
:10081000B5F5805F38D009DCB5F5007F2BD0B5F594
:10082000806F2BD0B5F5006F3AD12AE0B5F5005FA7
:100830002DD0B5F5804F2DD0B5F5004F30D12CE03F
:100840004FF000092DE04FF001092AE04FF00209B6
:1008500027E04FF0030924E04FF0040921E04FF0B6
:1008600005091EE04FF006091BE04FF0070918E0EC
:100870004FF0080915E04FF0090912E04FF00A099E
:100880000FE04FF00B090CE04FF00C0909E04FF0BE
:100890000D0906E04FF00E0903E04FF00F0900E0EC
:1008A00000BF00BFB8F5807F4BD01ADCB8F1100F45
:1008B0003BD00CDCB8F1010F2BD0B8F1020F2BD0DC
:1008C000B8F1040F2BD0B8F1080F52D12AE0B8F1DB
:1008D000200F2DD0B8F1400F2DD0B8F1800F48D1A6
:1008E0002CE0B8F5805F38D009DCB8F5007F2BD05C
:1008F000B8F5806F2BD0B8F5006F3AD12AE0B8F583
:10090000005F2DD0B8F5804F2DD0B8F5004F30D115
:100910002CE04FF0000A2DE04FF0010A2AE04FF0E2
:10092000020A27E04FF0030A24E04FF0040A21E016
:100930004FF0050A1EE04FF0060A1BE04FF0070AD1
:1009400018E04FF0080A15E04FF0090A12E04FF0E6
:100950000A0A0FE04FF00B0A0CE04FF00C0A09E016
:100960004FF00D0A06E04FF00E0A03E04FF00F0AB9
:1009700000E000BF00BF7F48304418B1B0F5806F81
:100980001AD10CE04FF0090B00208DF81200142052
:100990008DF804000121480600F0E0FF0DE04FF063
:1009A000090B0E208DF8120040208DF80400012163
:1009B000000500F0D3FF00E000BF00BFC4F3090052
:1009C00078BBA012A0F580108038092834D2DFE867
:1009D00000F0050A0F14191E23292E0001210846D4
:1009E00000F0ACFF29E00121022000F0A7FF24E085
:1009F0000121042000F0A2FF1FE00121082000F0E7
:100A00009DFF1AE00121102000F098FF15E0012160
:100A1000202000F093FF10E00121402000F08EFF25
:100A20000BE009E00121802000F088FF05E00121B2
:100A3000080200F083FF00E000BF00BF5A464946AD
:100A4000204600F0FFFD5A465146204600F0FAFDD0
:100A500045EA0800099002208DF828008DF8290049
:100A600000208DF82A0001208DF82B0009A92046CE
:100A700000F0A0FD304600F07FF800208DF81E0049
:100A80008DF81F008DF820008DF821008DF82200D0
:100A90008DF823008DF81A008DF81B000B208DF8BF
:100AA0001C0007208DF81D007D2F22D008DC0A2FA6
:100AB0000FD0142F11D0322F13D0642F29D114E06E
:100AC000FA2F1AD0B7F5FA7F1BD0B7F57A7F20D16D
:100AD0001BE0C820ADF818001CE06420ADF8180039
:100AE00018E02820ADF8180014E01420ADF8180024
:100AF00010E01020ADF818000CE00820ADF8180048
:100B000008E00420ADF8180004E00220ADF8180059
:100B100000E000BF00BF06A9304600F0D6F8002074
:100B20008DF8130001208DF814000020ADF80800A6
:100B3000ADF80A00ADF80C00ADF80E00ADF81000ED
:100B400001208DF8150002A800F032F802208DF87F
:100B5000050003208DF8060001208DF8070001A88C
:100B600000F0FCFD01220221304600F0A5F80BB098
:100B7000BDE8F08F009CFFBF10B504460B488442CF
:100B800009D10121480600F0F9FE00214FF0007064
:100B900000F0F4FE08E00121880600F0EFFE0021DD
:100BA0004FF0806000F0EAFE10BD000000640040DD
:100BB00010B50021837A012202FA03F13D4A12683E
:100BC00042F001023B4B1A603A4A1C3212688A43D7
:100BD000384B1C331A60027BCAB9364A0C32126891
:100BE0008A43344B0C331A604288C38842EA034379
:100BF000304A4032847A42F834300288838842EAAC
:100C000003432C4A4032847A02EBC4025360027BD5
:100C1000012A19D1274A0C3212680A43254B0C339A
:100C20001A604288038842EA0343224A4032847AA7
:100C300042F83430C288838842EA03431D4A403276
:100C4000847A02EBC4025360C27A3AB9194A121D7F
:100C500012688A43174B1B1D1A6006E0154A121DC5
:100C600012680A43134B1B1D1A60028932B9114ADC
:100C7000143212688A430F4B14331A600289012A16
:100C800006D10C4A143212680A430A4B14331A6014
:100C9000427B012A06D1074A1C3212680A43054BDF
:100CA0001C331A60034A126822F00102014B1A60D9
:100CB00010BD0000006600401AB143690B43436158
:100CC00002E043698B434361704730B50246002020
:100CD0000023146824F002041460146844F0010432
:100CE000146000E05B1C546804F001041CB94FF66A
:100CF000FF74A342F6D1546804F001040CB900203B
:100D00006CE08C79012C04D1146844F080041460E8
:100D100003E0146824F080041460CC79012C04D121
:100D2000146844F04004146003E0146824F04004A4
:100D300014600C7A012C04D1146844F0200414606F
:100D400003E0146824F0200414604C7A012C04D1D0
:100D5000146844F01004146003E0146824F01004D4
:100D600014608C7A012C04D1146844F008041460D7
:100D700003E0146824F008041460CC7A012C04D138
:100D8000146844F00404146003E0146824F00404BC
:100D900014608C78A407CD7844EA05640D7944EAA0
:100DA00005444D7944EA05540D886D1E2C43D461E9
:100DB000146824F001041460002300E05B1C5468F4
:100DC00004F001041CB14FF6FF74A342F6D154683D
:100DD00004F001040CB1002000E0012030BD024607
:100DE000002019B9D36803F0030006E0012903D1FC
:100DF000136903F0030000E00020704710B500F510
:100E0000D87303EB01131B6803F004031372137A06
:100E100053B900F5D87303EB01131B6840F2FF745C
:100E200004EA5353136009E000F5D87303EB011390
:100E30001B686FF0604404EAD303536000F5D87375
:100E400003EB01131B6803F00203537200F5D87320
:100E500003EB01135B6803F00F03937200F5D87383
:100E600003EB01135B681B0AD37400F5D87303EB23
:100E700001139B68D37200F5D87303EB01139B68D1
:100E80001C0A147300F5D87303EB01139B681C0C48
:100E9000547300F5D87303EB01139B681B0E937317
:100EA00000F5D87303EB0113DB68D37300F5D87337
:100EB00003EB0113DB681C0A147400F5D87303EB11
:100EC0000113DB681C0C547400F5D87303EB011399
:100ED000DB681B0E937421B9C36843F02003C36021
:100EE00003E0036943F02003036110BD2DE9F041E5
:100EF00086B080460D4616461F4600240021404617
:100F0000FFF76DFF18B9002006B0BDE8F08101AA17
:100F100000214046FFF772FF002405E00DF10F00AD
:100F2000005D3055601CC4B2BC42F7DB01982860FC
:100F30000120E9E710B502460020936803F08063C2
:100F4000B3F1806F00D110E0936803F00063B3F158
:100F5000006F01D1012008E0936803F08053B3F1E2
:100F6000805F01D1022000E00420042874D002F543
:100F7000C07303EB00131B6803F0010402F5C07398
:100F800003EB00131C600B7A7BB94B7A0C8843EAA5
:100F9000445302F5C07404EB00142468234302F5A3
:100FA000C07404EB0014236010E00B7A4C6843EA31
:100FB000C4034C7A234302F5C07404EB0014246884
:100FC000234302F5C07404EB001423608B7A03F012
:100FD0000F038B7202F5C07303EB00135B6823F001
:100FE0000F0402F5C07303EB00135C6002F5C073DD
:100FF00003EB00135B688C7A234302F5C07404EBA7
:10100000001463608B7B1C064B7B44EA03440B7B20
:1010100044EA0323CC7A234302F5C07404EB0014A2
:10102000A3608B7C1C064B7C44EA03440B7C44EAA3
:101030000323CC7B234302F5C07404EB0014E3606C
:1010400002F5C07303EB00131B6843F0010402F5C3
:10105000C07303EB00131C6010BD000010B5024606
:10106000002321B1012907D002290FD109E090689E
:101070001D4C00EA04030BE090681C4C00EA0403DA
:1010800006E090681A4C00EA040301E0002300BF68
:1010900000BF184C181BA34216D007DC83B16FF0B9
:1010A0008060184470B1022818D111E0B0F5007FBB
:1010B00010D0114C204448B1B0F5003F0ED10BE0E8
:1010C00002230DE000230BE0002309E0002307E0EA
:1010D000012305E0012303E0012301E0002300BF19
:1010E00000BFD8B210BD00000300000400030008D8
:1010F00000000310000100080001FFF72DE9F04394
:1011000085B081460D4690461E4600240095019507
:1011100000208DF808008DF809008DF80A6000BFE6
:1011200006E018F804100DF10B000155601C84B2A4
:10113000B442F6DB69464846FFF7FCFE074600244A
:1011400000BF39464846FFF789FF0128F9D105B0AD
:10115000BDE8F08310B588B004460121082000F0F6
:10116000EDFB0121480400F0F9FB0722052124488A
:1011700000F068FA07220621214800F063FA602097
:10118000069002208DF81C008DF81D0000208DF8BF
:101190001E0001208DF81F0006A9194800F00AFA68
:1011A00002940020ADF80C00ADF80E00ADF8100070
:1011B000ADF814000C20ADF8120002A9114801F09E
:1011C000FFFB40210F4801F017FB26208DF804009B
:1011D00000208DF8050002208DF8060001208DF812
:1011E000070001A800F0BAFA012240F22551054893
:1011F00001F0C1FB0121034801F016FB08B010BD4E
:10120000000C02400044004010B50749074800F0B8
:10121000EBF838B10021054800F024F802490348F2
:1012200000F006F810BD000000800028B860024001
:101230000246094B9A4201D2084801E0064810389C
:1012400001F000531BB1064B0B40C36002E0044B9E
:101250000B40836070470000106402400060024051
:101260007D0F7D0F21B1026842F00102026003E0B0
:10127000026822F00102026070470000016821F05C
:10128000010101600021016041608160C160016174
:10129000212141614A49884204D13D21484A103AFE
:1012A00091608CE046491831884205D14FF4746151
:1012B000434A103A916082E041493031884205D179
:1012C0004FF474113E4A103A916078E03C4948313D
:1012D000884205D14FF07461394A103A91606EE04E
:1012E00037496031884204D13649354A103AD160D5
:1012F00065E033497831884204D13349304A103AA5
:10130000D1605CE02E499031884204D12F492C4AAB
:10131000103AD16053E02A49A831884205D14FF0F4
:101320003D51274A103AD16049E02949884204D109
:101330003D21274A083A116041E025491831884289
:1013400005D14FF47461224A083A116037E0204910
:101350003031884205D14FF474111D4A083A1160AA
:101360002DE01B494831884205D14FF07461184A7D
:10137000083A116023E016496031884204D11149CE
:10138000134A121F11601AE011497831884204D1C2
:101390000D490F4A121F116011E00D49903188422A
:1013A00004D10A490A4A121F116008E00849A8310D
:1013B000884204D14FF03D51054A121F1160704719
:1013C000106002403D000020400F002000003D2042
:1013D00010640240014600200A6802F001020AB1CE
:1013E000012000E00020704770B502460020002474
:1013F0000025124EB24201D2114B01E00F4B103BBF
:10140000104E0E4036B11E2606EAD124166806EAB2
:10141000040502E0566906F0800501F000560EB1A1
:101420005C6800E01C68084E344004EA010616B10E
:101430000DB1012000E0002070BD000010640240EA
:10144000006002403C0F3C0F7D0F7D0F10B501F096
:1014500080034BB122B1436943F08003436103E051
:10146000436923F08003436180290BD02AB10368CC
:1014700001F01E042343036004E0036801F01E042E
:10148000A343036010BD000010B500220268134B97
:101490001A40CC680B6823434C6923438C6923436F
:1014A000CC6923430C6A23434C6A23438C6A23434D
:1014B0004C6B23438C6B23431A430260426922F036
:1014C0000702D1E90B3423431A4342610B6943609D
:1014D0004B6883608B68C36010BD00003F801CF0C8
:1014E000704700B5034604E04FF47A7000F004F84A
:1014F0005B1E002BF8D100BDA82141434FF0E02234
:1015000051610521116100BF4FF0E021096901F42B
:1015100080310029F8D004214FF0E022116170479A
:1015200010B52DED0C8BB0EE408AF0EE608AB0EE77
:10153000419AF0EE619A38EEE90A10EE101A084668
:1015400004F0D6F941EC1D0B9FED181BB0EE4D0ACF
:10155000F0EE6D0A01F09CFCB0EE40BAF0EE60BA1D
:1015600038EE490A10EE101A084604F0C1F941ECB1
:101570001D0B9FED0E1BB0EE4D0AF0EE6D0A01F053
:1015800087FCB0EE40CAF0EE60CA53EC1B2B51EC66
:101590001C0B03F00DFC41EC1A0BB0EE4A0AF0EE06
:1015A0006A0A02F001FBBDEC0C8B10BD00000000CC
:1015B00000000040F0B50A4600210023002400BFCF
:1015C0003DE0012505FA01F3156805EA03049C4294
:1015D00034D105684F000326BE40B5430560157938
:1015E0004E00B5400668354305601579012D02D0DF
:1015F0001579022D16D185684F000326BE40B543EC
:10160000856055794E00B5408668354385604568EC
:1016100001268E40B5434560456896798E40B6B246
:1016200035434560C5684F000326BE40B543C560DD
:10163000D5794E00B540C6683543C560491C1029B0
:10164000BFD3F0BDF0B5002300244D07ED0E02FA24
:1016500005F3CE1000F1200555F826504E07F70E81
:101660000F26BE40B543CF1000F1200646F82750A4
:10167000CE1000F1200555F8265045EA0304CE109F
:1016800000F1200545F82640F0BD02460020136910
:101690000B400BB1012000E00020704741837047F0
:1016A0000183704700BFFEE708B5002003465322C0
:1016B000632100904FF0804000F052FC0120002395
:1016C00040F2473240F2E73100901D4800F048FCFC
:1016D0000120002340F2473263210090194800F0B6
:1016E0003FFC4FF400704310174A4FF4FA7100901A
:1016F0001648FFF769F840202023134A4FF4FA7187
:1017000000901348FFF760F8FEF7D6FEFEF718FFCB
:1017100000F06AF800F048FD00F0DAF84FF4E1302C
:1017200000F076FA4FF4E130FFF714FD4FF4E130AA
:1017300000F072F84FF4612000F068FD08BD000071
:101740000004004000080040000402400064004023
:101750000068004000BFFEE700BFFEE770B5002153
:1017600000230F22C4781CB3174C246804F4E064EF
:10177000C4F5E064C4F30721C1F10404E3B20A41F3
:1017800044789C40E1B28478144021430C07210E38
:101790000E4C05786155047804F01F050124AC4017
:1017A00005786D11AD0005F1E025C5F8004109E0AF
:1017B000047804F01F050124AC40054D067876112D
:1017C00045F8264070BD00000CED00E000E400E0AC
:1017D00080E100E002490143024A116070470000C5
:1017E0000000FA050CED00E01CB50121102000F00E
:1017F000A5F84FF48070009000208DF804000320BD
:101800008DF8050001208DF8070069460148FFF7B3
:10181000D1FE1CBD0010024010B588B00446012165
:10182000082000F08BF80121880400F097F80722C7
:1018300008212548FFF706FF072209212248FFF764
:1018400001FF4FF44070069002208DF81C008DF8C7
:101850001D0000208DF81E0001208DF81F0006A934
:101860001948FFF7A7FE4FF4E13002900020ADF8D1
:101870000C00ADF80E00ADF81000ADF814000C200F
:10188000ADF8120002A9114801F09AF801210F48A1
:1018900000F0CAFF40210D4800F0AEFF012240F2E7
:1018A00025510A4801F067F827208DF80400002030
:1018B0008DF8050001208DF806008DF8070001A8BD
:1018C000FFF74CFF08B010BD000C0240004800407C
:1018D0001CB50121102000F031F8502000900120AB
:1018E0008DF8040000208DF8060003208DF8050017
:1018F00002208DF8070069460348FFF75BFE502180
:101900000148FFF7CDFE1CBD00100240F0EE400A7A
:101910009FED071AB0EE410A9FED061A20EE811ADC
:10192000DFED051A81EE212AB0EE420A7047000071
:1019300000000000DD7EBC430000804529B1064A5E
:1019400012680243044B1A6004E0034A126882439F
:10195000014B1A60704700003038024029B1064A36
:1019600012680243044B1A6004E0034A126882437F
:10197000014B1A60704700004038024029B1064A06
:1019800012680243044B1A6004E0034A126882435F
:10199000014B1A60704700002038024029B1064A06
:1019A00012680243044B1A6004E0034A126882433F
:1019B000014B1A60704700004438024029B1064AC2
:1019C00012680243044B1A6004E0034A126882431F
:1019D000014B1A607047000024380240F0B5002126
:1019E00000220024022500260223324F3F6807F020
:1019F0000C0121B1042905D0082937D105E02E4F6B
:101A0000076036E02D4F076033E02A4F3F1F3F68E5
:101A1000C7F38056274F3F1F3F6807F03F036EB163
:101A2000264FB7FBF3F7DFF88CC0ACF1040CDCF801
:101A300000C0CCF3881C07FB0CF40CE01E4FB7FB76
:101A4000F3F7DFF870C0ACF1040CDCF800C0CCF3A5
:101A5000881C07FB0CF4174F3F1F3F68C7F3014773
:101A60007F1C7D00B4FBF5F7076002E0124F0760B2
:101A700000BF00BF0F4F3F6807F0F0010909104F8A
:101A80007A5C0768D74047600A4F3F6807F4E05127
:101A9000890A0B4F7A5C4768D7408760054F3F68DB
:101AA00007F46041490B064F7A5C4768D740C7602E
:101AB000F0BD0000083802400024F40000127A0053
:101AC0002C010020704700000CB500200190009010
:101AD0003448006840F480303249086000BF314823
:101AE000006800F4003000900198401C01900098BC
:101AF00018B90198B0F5A06FF1D12A48006800F438
:101B0000003010B10120009001E00020009000980A
:101B1000012846D123484030006840F080502149D8
:101B2000403108602048006840F480401E49086049
:101B30001C48083000681B490831086008460068E6
:101B400040F4004008600846006840F4A050086077
:101B50001648091F0860081F006840F08070091FC0
:101B6000086000BF0F48006800F000700028F9D03E
:101B700040F205600E4908600A480830006820F00D
:101B800003000849083108600846006840F0020078
:101B9000086000BF03480830006800F00C00082807
:101BA000F8D10CBD003802400070004008544007D6
:101BB000003C024000B52DED028B81B0B0EE408AB2
:101BC000B0EE480A03F056F8009041210F4800F0AB
:101BD000E9FF9DF800100D4800F0E4FF9DF80110AA
:101BE0000A4800F0DFFF9DF80210084800F0DAFF15
:101BF0009DF80310054800F0D5FF4A21034800F086
:101C0000D1FF01B0BDEC028B00BD0000001001400F
:101C100010B588B0044601210846FFF78FFE012168
:101C20001020FFF7BBFE072209212548FFF70AFD18
:101C300007220A212248FFF705FD4FF4C0600690F5
:101C400002208DF81C008DF81D0000208DF81E006C
:101C500001208DF81F0006A91948FFF7ABFC02947C
:101C60000020ADF80C00ADF80E00ADF81000ADF896
:101C700014000C20ADF8120002A9124800F0A0FEDA
:101C80004021104800F0B8FD25208DF80400002008
:101C90008DF8050002208DF8060001208DF8070060
:101CA00001A8FFF75BFD012240F22551054800F035
:101CB00062FE0121034800F0B7FD08B010BD00002E
:101CC000000002400010014010B51548006840F4C3
:101CD0007000134908601348006840F00100114982
:101CE000086000200F49083108600E4800680E495E
:101CF00008400C4908600D48091D0860081F00686D
:101D000020F48020091F0860002006490C3108607B
:101D1000FFF7DAFE4FF0006001498039086010BD1E
:101D200088ED00E000380240FFFFF6FE103000248E
:101D300010B50121044800F0F8F8012803D1012171
:101D4000014800F0E3F810BD0000014010B501218A
:101D5000880700F0EAF801281AD10121800700F075
:101D6000D5F80C480088401C0A49088008460088BD
:101D700000EE100AB8EE400ADFED070AB4EEE00A02
:101D8000F1EE10FA04DB00200880012003490870FE
:101D900010BD0000E40000200000C842E600002062
:101DA00010B50121364800F0C0F8012866D10121A4
:101DB000334800F0ABF83348D0F8BC01401C31493F
:101DC000C1F8BC0130480068401C2F490860084633
:101DD00000684FF6FF7190FBF1F201FB12002A49F7
:101DE00008602A49086800EBD0714910A0EB410156
:101DF000A9B9244890ED1F0A254880ED000A214822
:101E000090ED200A234880ED000A214890ED000A59
:101E100002F024FF1F4890ED000A02F025FF1B4846
:101E20000068401C1949086008460068B0F5C87F82
:101E300001DD002008601348D0F8B801012804D162
:101E400015480068401C1449086013480068B0F544
:101E50007A5F13DD0020104908600A4908700846BF
:101E6000007840F0100008700846007840F040000C
:101E700008700846007840F00800087010BD0000A7
:101E8000000400403C010020E8000020F800002091
:101E9000EC000020F0000020F400002010B501212B
:101EA0000A4800F042F801280FD10948D0F8CC01C7
:101EB000401C0749C1F8CC010121044800F026F874
:101EC00002F01AFE0249C1F8A80110BD0008004046
:101ED0003C01002010B50121044800F026F801283B
:101EE00003D10121014800F011F810BD000C0040A1
:101EF00010B50121044800F018F8012803D1012190
:101F0000014800F003F810BD00040140CA430282FA
:101F1000704721B1028842F00102028004E0028889
:101F20004FF6FE731A400280704730B5024600201B
:101F300000230024158A05EA0103958905EA0104B6
:101F400013B10CB1012000E0002030BD1AB183892B
:101F50000B43838102E083898B43838170470000B8
:101F60002DE9FF4104460D4616461F46DDF8288040
:101F70006949601A8C4270D01ADC6849A4EB0100F0
:101F80008C426CD00ADCB4F1804F4ED064482044BF
:101F9000002852D0B0F5806F71D156E0B0F5806F57
:101FA00065D0B0F5006F6CD0B0F5406FF4D170E043
:101FB000B0F5923F21D009DCB0F5806F7AD0B0F552
:101FC000644F0AD0B0F5684F7CD10EE0B0F5943F75
:101FD0001BD0B0F5963F75D11FE001210846FFF7F1
:101FE000DDFC19208DF800006DE001210220FFF7D3
:101FF000D5FC2C208DF8000065E001210804FFF7D6
:10200000CDFC18208DF800005DE001211920FFF7BC
:10201000C5FC2C208DF8000055E001218804FFF755
:10202000BDFC1A208DF800004DE001210846FFF7A5
:1020300095FC1C208DF8000045E001210220FFF7EF
:102040008DFC1D208DF800003DE001210420FFF7EC
:1020500085FC1E208DF8000035E023E0FFE701211C
:102060000820FFF77BFC32208DF800002BE00121D7
:102070001020FFF773FC36208DF8000023E021E0EC
:10208000FFE701212020FFF769FC37208DF80000D1
:1020900019E001214020FFF761FC2B208DF80000A2
:1020A00011E007E001218020FFF758FC2C208DF87B
:1020B000000008E001210802FFF750FC2D208DF8F8
:1020C000000000E000BF00BF0295ADF804600020F2
:1020D000ADF80C00ADF8060001A9204600F022F88A
:1020E00001212046FFF712FF012211462046FFF78B
:1020F0002DFFF8B28DF8010008F0FF008DF8020006
:1021000001208DF803006846FFF728FB01212046D7
:10211000FFF7FFFEBDE8FF81001C0040000C0040FF
:1021200000FCFFBF00220288184B98420ED0184BCB
:1021300098420BD0B0F1804F08D0164B984205D092
:10214000154B984202D0154B984204D14FF68F732D
:102150001A404B881A43124B984207D0114B9842B1
:1021600004D04FF6FF431A400B891A4302804B6894
:10217000C3620B880385054B984202D0044B9842FA
:1021800001D18B7A038601238382704700000140CE
:10219000000401400004004000080040000C004022
:1021A00000100040001400401CB501210420FFF77E
:1021B000C5FB01211020FFF7C1FB0120009000208A
:1021C0008DF8040003208DF8050002208DF807002B
:1021D00000208DF8060069460A48FFF7EBF9042055
:1021E000009000208DF8040003208DF805000220E7
:1021F0008DF8070000208DF8060069460248FFF7B9
:10220000D9F91CBD000802400010024010B590B082
:10221000044601214805FFF791FB204600F092F8A3
:102220002248FFF72BF800BF2048FFF7D3F800281B
:10223000FAD14FF0006001901D4802901D480390B4
:10224000402004900020059006904FF48060079095
:102250000020089009900A904FF400300B90002065
:102260000C9001200D9000200E900F9001A90F48B6
:10227000FFF70AF9012280210D48001F00F0E0FA63
:10228000012210210948FFF7E1F82F208DF8000006
:1022900002208DF801008DF8020001208DF8030066
:1022A0006846FFF75BFA10B010BD0000B86002404E
:1022B000045000401003002010B5002408211D48E0
:1022C00000F022FB48B140F225511A4800F09DFA77
:1022D000194800F062FCC4B22BE040F225511648C8
:1022E00000F01FFB012824D140F22551124800F0D4
:1022F0008CFA114800F051FCC4B21048104909682A
:1023000044540F480068401C0D49086008460068A6
:1023100000280EDD08460068801E0849085C0D286C
:1023200007D107480068401E085C0A2801D100F068
:10233000D3FC10BD0010014000500040600300209D
:102340008800002010B588B0044601940020ADF844
:102350000800ADF80A00ADF80C00ADF810000C2034
:10236000ADF80E000121FFF7E9FA01210805FFF79A
:10237000F5FA254800F06EFA08220C212348FFF7F1
:1023800061F9082202212248FFF75CF900208DF84C
:102390001A0001208DF81B0002208DF81800C002E1
:1023A000059002208DF8190005A91848FFF702F9D9
:1023B00002208DF818000420059005A91448FFF7A5
:1023C000F9F801A9104800F0FBFA35208DF81C003F
:1023D00001208DF81F0000208DF81D0002208DF8CF
:1023E0001E004FF4A060FFF7F5F907A8FFF7B6F954
:1023F000012240F22551044800F0BDFA01210248B3
:1024000000F012FA08B010BD005000400008024071
:10241000000C024010B50821374800F075FA50B1A1
:1024200040F22551344800F0F0F9334800F0B5FB94
:10243000324908705FE040F225512F4800F071FAF0
:10244000012858D140F225512B4800F0DEF92A48E6
:1024500000F0A3FB294908702948006820B1012831
:1024600010D0022842D124E024480078412805D128
:1024700023480068401C2249086002E000202049EF
:10248000086037E01D4800781E491F4A12688854CA
:102490001D480068401C1C49086008460068042864
:1024A00006DB0020086016480068401C14490860DC
:1024B00020E012480078522803D10121134801611D
:1024C00010E00E48007856280CD10E490868C11754
:1024D00000EB1151091300EE101AB8EEC00A0B49B7
:1024E00081ED080A00200649086003E00020044945
:1024F000086000BF00BF10BD00100140C8000020F0
:10250000C0000020CC000020C40000203C010020BE
:1025100010B50821334800F0F7F928B140F22551F1
:10252000304800F072F95CE040F225512D4800F08F
:10253000F8F9012855D140F225512A4800F065F9F3
:10254000284800F02AFB2849087008460078C5286A
:102550000FD10020254908602549086025480068FA
:10256000254908600846006802F066FB0020214902
:1025700008601E48006820B101280CD002282ED126
:1025800017E019480078C62804D118480068401C94
:102590001649086024E01448007841B21748144AEC
:1025A000126800F8121011480068401C0F490860BA
:1025B00016E00D48017811480D4A126800EB420000
:1025C000417001200949086009480068401C084919
:1025D000086008480068401C0649086000E000BF29
:1025E00000BF10BD004400409C000020D800002027
:1025F000DC00002094000020D400002048020020CD
:1026000010B540F225516E4800F08BF901287DD1BC
:1026100040F225516A4800F0F8F8694800F0BDFA28
:102620006849087068480078062870D2DFE800F032
:1026300003192E4553B4634800780D2805D162482C
:102640000078401C604908700AE05E4800784F2816
:1026500003D105205C49087002E000205A49087047
:10266000A9E0584800780A2808D100205749087086
:1026700055480078401C5449087006E051480078DD
:102680000D2802D000205049087094E04D48007891
:102690004F494E4A127888544C480078401C4B49A8
:1026A000087008460078182806DB002008704648A5
:1026B0000078401C444908707DE0424800780A28B0
:1026C00005D141480078401C3F49087002E00020D5
:1026D0003D4908706FE03B4800780D2858D1012033
:1026E0003C49C1F8B4013A4890ED000A3A4880EDFF
:1026F000000A374890ED010A80ED010A90ED020AC8
:1027000080ED020A90ED030A344801E054E04EE007
:1027100080ED000A2E4890ED040A314880ED000A51
:102720002E4890ED000A2F4880ED000A2C4890EDCD
:10273000000A2D4880ED000A274890ED000A2B483A
:1027400080ED000A224890ED050A80ED050A284830
:1027500080ED000A214890ED000A02F073FA20484B
:1027600090ED000A02F074FA1B4890ED000A02F0A6
:1027700057FA02F00DF8174880ED1F0A02F084F8AE
:10278000144880ED200A01F0ABFF124880ED1E0ACC
:1027900000200D4908700EE000200B490870094820
:1027A00000784B2802D101201249086003E0002084
:1027B0000549087000BF02E0014800F0EEF910BDC5
:1027C00000480040D0000020D1000020D2000020AE
:1027D000740300203C0100207C00002080000020C9
:1027E0008400002070000020740000207800002089
:1027F0008C0000209000002001F40072B2F5007FF0
:1028000000D100BFCA430280704710B500220023E8
:1028100040F66A14A14200D100BF0A12012494407C
:10282000A3B2DC43048010BD21B1828942F400527E
:10283000828104E082894DF6FF731A4082817047DD
:102840001AB1838A0B43838202E0838A8B4383829B
:102850007047000010B504462548844208D1012184
:102860001020FFF7ABF800211020FFF7A7F83EE09B
:102870002048844209D101214804FFF77FF8002154
:102880004FF40030FFF77AF831E01B48844209D159
:1028900001218804FFF772F800214FF48020FFF730
:1028A0006DF824E01548844209D10121C804FFF7DE
:1028B00065F800214FF40020FFF760F817E010489A
:1028C000844209D101210805FFF758F800214FF48F
:1028D0008010FFF753F80AE00A48844207D101212B
:1028E0002020FFF76BF800212020FFF767F810BDCC
:1028F000001001400044004000480040004C0040EF
:10290000005000400014014002460020B1F5007F55
:1029100000D100BF13880B400BB1012000E0002064
:10292000704770B50246002400230025002040F6C1
:102930006A16B14200D100BFC1F3421501F01F0376
:10294000012606FA03F3012D02D19689334006E0F1
:10295000022D02D1168A334001E0968A33400C12D0
:10296000012606FA04F41688344013B10CB1012094
:1029700000E0002070BDF0B50346002400260025CD
:10298000002040F66A17B94200D100BF1846C1F3D3
:10299000421401F01F06012707FA06F5012C01D1A8
:1029A0000C3004E0022C01D1103000E014301AB1D8
:1029B00007682F43076002E00768AF430760F0BD78
:1029C0002DE9FF4705460E460024A14600BFA0465C
:1029D000B08900B100BF2C8A24F44054F08804432D
:1029E0002C82AC8941F20C608443B0883189084361
:1029F000718908430443AC81AC8A24F44074B089E3
:102A00000443AC826846FEF7E9FF2048854202D0C5
:102A10001F48854202D1DDF80C9001E0DDF80890F6
:102A2000A88900F4004040B109EBC90000EB09108F
:102A300031684900B0FBF1F707E009EBC90000EB92
:102A4000091031688900B0FBF1F76420B7FBF0F0A2
:102A500004012009642101FB1078A88900F40040DA
:102A600040B1322000EBC800B0FBF1F000F00700ED
:102A7000044308E0322000EB08106421B0FBF1F0C1
:102A800000F00F0004432C81BDE8FF8700100140D7
:102A9000001401400FB470B586B006460CA8019032
:102AA00073E00B9800785C281CD10B98401C0B90AD
:102AB00000786E2809D072280FD10D21304600F021
:102AC00071F80B98401C0B900BE00A21304600F087
:102AD00069F80B98401C0B9003E00B98401C0B907E
:102AE00000BF4BE00B980078252840D10B98401C84
:102AF0000B900078642818D0732833D1019810C83F
:102B000001900BE02178304600F04CF800BF4021E6
:102B10003046FFF7F9FE0028F9D0641C2078002821
:102B2000F0D10B98401C0B9020E0019820C8019038
:102B30000A2202A9284601F023FF02AC0BE021780B
:102B4000304600F02FF800BF40213046FFF7DCFE92
:102B50000028F9D0641C20780028F0D10B98401C84
:102B60000B9003E00B98401C0B9000BF06E00B9805
:102B700010F8011B0B90304600F014F800BF402104
:102B80003046FFF7C1FE0028F9D00B9800780028E6
:102B900087D106B070BC5DF814FB01468888C0F38D
:102BA0000800704730B504460D4600BF802120461E
:102BB000FFF7AAFE0028F9D080212046FFF71CFE6F
:102BC00040212046FFF718FEC5F30800A08030BD65
:102BD00000BFFEE72DE9F04794B081460D4616464A
:102BE0001F4600243822364906A8FDF798FB05F554
:102BF00040700190029000208DF80C008DF80D00BF
:102C000008208DF80E000D960F972E49119149421C
:102C1000139100BF4EE006A810F834008DF80F00A5
:102C200006A830F83400010A8DF8101006A850F8F4
:102C30003400010C8DF8111006A850F83400000E75
:102C40008DF8120006A800EBC40001798DF813106E
:102C500006A800EBC4008088010A8DF8141006A8AD
:102C600000EBC4004068010C8DF8151006A800EBBD
:102C7000C4004068000E8DF8160001A94846FEF712
:102C800059F982464FF000080BE008F1010842F2C2
:102C90001070804505D103220BA10E48FFF7FAFE04
:102CA00005E051464846FEF7D9F90128EDD100BFAD
:102CB000601CC4B2072CAEDB14B0BDE8F087000086
:102CC000F05A0008C0E1E400737475636B2025645A
:102CD000000000000050004010B5214800680428A2
:102CE0000AD104221FA12148FDF7CEFA20B920A164
:102CF0002148FFF7CFFE30E019480068092828D1A5
:102D000003221EA11948FDF7BFFA10BB1748C0786F
:102D10001B4908701548007948701448407988703C
:102D200012488079C870084690ED000ADFED150A58
:102D3000B4EEE00AF1EE10FA0FD290ED000A12485C
:102D400080ED170A084690ED000A0F4880ED1A0A38
:102D500003E00EA10848FFF79DFE01F0A9FB10BD9E
:102D60008800002059580D0A000000006003002070
:102D70004F4B0D0A000000000050004076656C00CB
:102D8000BC00002000401C473C0100206572726FAF
:102D9000720D0A0003B401984100009850EAC12066
:102DA00018BF04204A0D18BF40F0010040F2FF7226
:102DB000B2EB515F08BF40F00200012808BF0520B8
:102DC00002B070470000000010B52F499FED2C1B8A
:102DD0002DED020B84B0059820F000408842D8BF4A
:102DE0009DED040B2DDD2949884209D1049840B995
:102DF0004FF00100FDF7CDFA01F02AFB06B010BD3F
:102E000005DB9DED040B01F00FFB06B010BD68461D
:102E10009DED040B00F008FF10F0030004BF9DEDD2
:102E2000021B9DED000B0CD001280ED09DED021B66
:102E30009DED000B022817D0012001F045FA06B0E5
:102E400010BD01F00DF906B010BD9DED021B9DED0A
:102E5000000B012001F038FA51EC100B01F06AFF71
:102E600006B041EC100B10BD01F0FAF851EC100B5C
:102E700001F060FF06B041EC100B10BD0000000037
:102E80000000000000000000FB21E93F0000F07F8F
:102E90002DE9F04D2DED040B2DED0E8B96B0DDE9F7
:102EA0002550279CDDF890A025F0004624F000482E
:102EB000BAF1000F14BF0121002101EB4502FC49CA
:102EC00053184A1093422AD3002814BF0123002329
:102ED00003EB44030B44F7498B4220D358EA00012B
:102EE0009FEDF59B76D0DFF8D8B35D4503D1BAF1FD
:102EF000000F05D188E0BAF1000F08BF002100D013
:102F0000012101EB450111F5001F08D8002814BF6D
:102F10000121002101EB440111F5001F0BD99DEDAA
:102F2000261B9DED240B16B0BDEC0E8B04B0BDE846
:102F3000F04D01F083BA0027002DBCBFE149884560
:102F400021DAE1498845A8BF02271CDAC3451ADC0B
:102F5000DE4901EB2851142908DDC1F1340220FAC1
:102F600002F101FA02F282420DD108E058B9C1F132
:102F7000140228FA02F101FA02F2424503D101F0EB
:102F80000101C1F1020756EA0A0124D1002C22DA1C
:102F9000002D18BF022F01D0012F0AD00220FDF70B
:102FA000F8F916B0BDEC0E8B04B0BDE8F04D01F0A1
:102FB00023BA0220FDF7EDF901F01EFA51EC100BD7
:102FC00001F0B8FE41EC100B16B0BDEC0E8B04B056
:102FD000BDE8F08D18E09FEDBEAB9FEDBF8B0028E4
:102FE00071D1B848804522D105F1804010F580109C
:102FF00008BFBAF1000F07D0B3450ADC002CA8BF08
:103000009DED260BE0DA0DE0B0EE490AF0EE690A1C
:10301000DAE7002C06DA9DED260B51EC100B01F0DF
:1030200089FE6FE0AE48784490ED000BCCE7D845C0
:103030004DD1002C48DA2EB186423AD1BAF1000FB8
:1030400042D126E0BAF1000F13D00220FDF7A1F91A
:1030500001F00EFA8DED020B9DED240B8DED000BB2
:1030600010EE900A039961F31E0003909DED020B90
:10307000AAE78DED02AB9DED240B1AEE901A10EE2F
:10308000900A8DED000B61F31E0003909DED020B85
:103090009AE78DED028B9DED240B18EE901A10EE41
:1030A000900A8DED000B61F31E0003909DED020B65
:1030B0008AE709DA9DED240B51EC190B53EC102B28
:1030C00001F032FF1EE020E09DED240B7CE78642FC
:1030D0001BDAB4F1804F0DD0A4F10050B0F1FF50D5
:1030E00013D1002D11DB9DED240B51EC100B01F0E1
:1030F000D3FD07E09DED240B53EC102B51EC100B8E
:1031000000F0C2BC41EC100B5EE79DED240B51ECCE
:10311000100B01F0D9FABAF1000FCDE90E0142D13E
:103120009FED710B46B3A6F1E040B0F17F600CD08B
:103130005E4538D1002D00DAA7B3022F0CBF012065
:103140004FF0FF3002F077F8DCE7002D01DD002CB6
:103150000DDA002D01DD002C1FDB002D16DA002C0E
:1031600014DB012F08BF9FED620B3FF42DAFB0EED3
:103170004A0AF0EE6A0A27E7022F18BF002D0CD08A
:10318000012F0AD1002DFFF61FAF06E0002DB8BFBA
:10319000002C08DA012F3FF417AFB0EE480AF0EE2A
:1031A000680A11E71BE0012000EBE57050EA070117
:1031B00015D0791EB0EE498AF0EE698A084308BF3F
:1031C0009FED4D8B4E480025804570DD4D494E48A2
:1031D000884514DDB0420DDB002C19DB2FE0012007
:1031E000FDF7D7F816B0BDEC0E8B04B0BDE8F04D7E
:1031F00001F02EB9B34502DC002C09DC1FE0864249
:1032000002DA002C1BDA03E05E452BDD002C16DD14
:103210000220FDF7BEF801F02BF98DED020B53EC07
:103220001A2B51EC180B02F06DF8CDE9000103994F
:10323000019861F31E0003909DED020BC4E602208D
:10324000FDF7A7F801F024F910EE901A18EE900A95
:103250008DED020B8DED008B61F31E0003909DED53
:10326000020BB1E69DED0E0B53EC192B51EC100B3C
:1032700002F054FA9FED260BCDE9080153EC102B18
:103280009DED080B51EC100B02F03CF89FED221B5A
:1032900053EC112B02F06AF99DED081B53EC112B36
:1032A00002F030F89FED1E1B53EC112B3CE08CE03C
:1032B000FFFF1F00FFFF0F00000000000000F03FB5
:1032C0000000F03F0000F07F0000404301FCFFFFE2
:1032D000000000000000F07F00000000000000007F
:1032E000762C0000000000000000000000000080BC
:1032F000000000000000F0FF000000000000F0BF30
:103300000000E0410000F043FFFFEF3F000000003D
:10331000000000000000D03F555555555555D53F8C
:10332000000000000000E03F02F020F99DED080BD6
:1033300041EC1A0B53EC102B51EC100B01F0E2FF97
:1033400053EC1A2B01F0DEFF41EC1A0B9FEDFE0B44
:1033500053EC102B9DED080B51EC100B01F0D2FF3C
:1033600041EC1B0B9FEDFA0B51EC1A0B53EC102B9D
:1033700001F0C8FF41EC1A0B9FEDF70B53EC102B3B
:103380009DED080B51EC100B01F0BCFF53EC1A2B18
:1033900002F0C4F941EC1A0B51EC1B0B53EC1A2B45
:1033A00001F006FD0690CDE906519DED060B53ECAC
:1033B0001B2B51EC100B02F0B1F953EC1A2B02F05D
:1033C000D5F841EC100B00F0A1B90020B6F5801F34
:1033D0000EDA9FEDE30B53EC102B9DED0E0B51EC31
:1033E000100B01F08FFFCDE90E016FF034000E4697
:1033F00000EB2650A0F2FF37C6F31300DA4940F085
:103400007F6646F040568842D8BF002408DDD74981
:103410008142C8BF012403DC0024A6F580167F1C6E
:10342000D348784400EBC4000F9690ED00CB9DED9F
:103430000E0B53EC1C2B51EC100B02F06FF99DEDB1
:103440000E0B41EC1B0B53EC1C2B51EC100B01F041
:10345000AFFC41EC100B51EC190B53EC102B01F0AD
:1034600063FD41EC1D0B51EC1B0B53EC1D2B01F0CC
:1034700049FF41EC1A0BBF488DED10AB7844109515
:1034800090ED000B4FF0005040EA660000EB8440E6
:103490008DED080B00F5002009909DED080B53EC15
:1034A0001C2B51EC100B02F039F99DED0E1B53EC67
:1034B000112B02F05BF841EC100B53EC102B9DED3F
:1034C000100B51EC100B01F01DFF9DED080B41ECB2
:1034D0001C0B53EC102B9DED100B51EC100B01F05D
:1034E00011FF53EC1B2B02F041F853EC1C2B02F0A4
:1034F00015F953EC1D2B01F005FF41EC1C0B53ECAF
:103500001A2B51EC1A0B01F0FDFE41EC1B0B9A48F3
:103510000621B0EE4B0AF0EE6B0A784400F058FE3C
:10352000B0EE401AF0EE601AB0EE41DAF0EE61DA79
:1035300053EC1B2B51EC1B0B01F0E4FE53EC1D2B49
:1035400001F0E0FE9DED100B41EC1B0B53EC1A2B30
:1035500051EC100B01F02CFC53EC1C2B01F0D2FEB3
:1035600053EC1B2B01F024FC9DED100B41EC1B0BCD
:1035700053EC102B51EC100B01F0C4FE41EC1D0B71
:103580009FED7FEB53EC1E2B01F012FC53EC1B2B39
:1035900001F00EFC0890CDE908519DED080B53ECAD
:1035A0001E2B51EC100B02F0B9F853EC1D2B02F05E
:1035B000B5F853EC1B2B01F0D9FF9DED080B41EC46
:1035C0001D0B53EC102B9DED100B51EC100B01F06B
:1035D00099FE41EC1B0B53EC1A2B51EC1D0B01F027
:1035E00091FE9DED080B41EC1A0B53EC102B51ECA6
:1035F0001C0B01F087FE53EC1A2B01F0D9FB41ECB8
:103600001A0B51EC1B0B53EC1A2B01F0D1FB0C9055
:10361000CDE90C519DED0C0B53EC1B2B51EC100B19
:1036200002F07CF853EC1A2B01F0A0FF41EC1B0BCD
:103630009FED550B53EC102B9DED0C0B51EC100B2B
:1036400001F060FE41EC1A0B9FED510B51EC1B0B8E
:1036500053EC102B01F056FE41EC1B0B9FED4E0B73
:1036600053EC102B9DED0C0B51EC100B01F04AFEAE
:1036700053EC1B2B01F09CFB41EC100B48487844A9
:1036800000EBC40090ED001B51EC100B53EC112B20
:1036900001F08EFB41EC1B0B384601F0CCFDCDE96F
:1036A000080153EC1B2B51EC1A0B01F081FB41EC90
:1036B000100B3C48784400EBC40090ED00CB51EC7B
:1036C000100B53EC1C2B01F073FB9DED081B53EC0E
:1036D000112B01F06DFB0690CDE906519DED080B15
:1036E00053EC102B9DED060B51EC100B02F016F86D
:1036F00053EC1C2B02F012F853EC1A2B02F00EF8CC
:1037000053EC1B2B01F032FF41EC100B9DED261BFF
:1037100053EC102B8DED001B00959DED260B51EC0D
:10372000100B01F0EFFD9DED000B41EC1A0B53EC7B
:10373000102B9DED260B51EC100B01F0EFFF9DEDD2
:10374000061B53EC112B2FE0000000604715F73FDC
:10375000FE822B654715F73F44DF5DF80BAE543E04
:1037600000000000000040438E9803007AB60B0072
:10377000C227000020280000FA26000000000000F8
:103780000000000000000840000000E009C7EE3F14
:10379000FD033ADC09C7EE3FF5015B14E02F3EBEA6
:1037A000862500004025000001F0ACFD53EC1A2BEB
:1037B00001F0FEFA9DED060B41EC1A0B53EC102BB9
:1037C0009DED000B51EC100B01F09CFDCDE90C01BF
:1037D0009DED0C0B51EC1A0B53EC102B01F0E8FA99
:1037E000CDE902010C46AA498C422FDB611A08433D
:1037F00018D19DED0C0B53EC102B9DED020B51ECF1
:10380000100B01F08BFF41EC1B0B9FEDA30B51EC58
:103810001A0B53EC102B01F0CBFA53EC1B2B01F0DD
:103820006FFE2DD20220FCF7B4FD00F021FE10EE59
:10383000901A18EE900A8DED020B8DED008B61F35E
:103840001E0003909DED020BFFF7BEBB944A24F0CF
:103850000041914214D39349214408437FF4EFACD3
:103860009DED0C0B53EC102B9DED020B51EC100B4E
:1038700001F054FF53EC1A2B01F042FE7FF6DFAC4F
:1038800024F000408849894A002601EB20518242F9
:103890002BDA481C4FF4801121FA00F02044844AAE
:1038A000C0F30A517A44A1F2FF3192ED000B814A34
:1038B0008DED080BCA4020EA0202C0F3130040F469
:1038C0008010C1F1140120FA01F60992002CB8BF52
:1038D00076429DED080B53EC102B9DED0C0B51EC3B
:1038E000100B01F01BFFCDE90C019DED0C0B51EC11
:1038F0001A0B53EC102B01F05BFA9FED6F0B089045
:10390000CDE9085153EC102B9DED080B51EC100B39
:1039100001F0F8FC41EC1B0B9FED690B53EC102BF5
:103920009DED080B51EC100B01F0ECFC9DED0C0B28
:1039300041EC1C0B53EC102B9DED080B51EC100BC4
:1039400001F0ECFE53EC1A2B01F010FE9FED5E1B14
:1039500053EC112B01F0D6FC53EC1C2B01F028FA90
:1039600041EC1A0B51EC1B0B53EC1A2B01F020FA13
:10397000CDE902019DED020B53EC1B2B51EC100B1A
:1039800001F0CCFE53EC1A2B01F0F0FD9DED020B83
:1039900041EC1A0B53EC102B51EC100B01F0B2FC64
:1039A000CDE908014A489DED080B0521784400F057
:1039B0000FFC9DED081B51EC100B53EC112B01F08B
:1039C000A1FC9DED021B53EC112B01F0CFFDCDE9C5
:1039D00006019DED020B53EC1A2B51EC100B01F07C
:1039E00091FC53EC1A2B01F0E3F99FED3B0B41ECFA
:1039F0001A0B53EC102B9DED060B51EC100B01F044
:103A00008DFE9DED060B41EC1B0B53EC102B9DED39
:103A1000020B51EC100B01F075FC53EC1B2B01F069
:103A200083FA53EC1A2B01F079FE9DED021B53EC47
:103A3000112B01F073FE53EC192B01F097FDCDE92A
:103A4000020101EB065001150029C8BF039015DCE7
:103A50009DED020B324651EC100B01F0F6FFFFF723
:103A600099F9042808BF00F013FD32469DED020BC2
:103A700051EC100B01F0E9FFCDE902019DED020BC5
:103A800051EC180B53EC102B01F03CFCFFF73ABB48
:103A90000000904000000000FE822B654715973C17
:103AA00000CC904000346F3F01FCFFFF0000E03F7E
:103AB000F8230000FFFF0F0000000000432EE63F48
:103AC000396CA80C615C20BEEF39FAFE422EE63F4D
:103AD00098220000000000000000000000000040EC
:103AE00010B52F499FED2C1B2DED020B84B00598CE
:103AF00020F000408842DCBF00209DED040B32DD49
:103B00002849884209D1049840B94FF00100FCF7D8
:103B100040FC00F09DFC06B010BD05DB9DED040BE4
:103B200000F082FC06B010BD68469DED040B00F06D
:103B30007BF810F0030011D0012818D09DED021B76
:103B40009DED000B02281AD000F08AFA51EC100B00
:103B500001F0F0F806B041EC100B10BD9DED021B1A
:103B60009DED000B012000F0AFFB06B010BD9DEDF8
:103B7000021B9DED000B00F073FA06B010BD012092
:103B800000F0A2FB51EC100B01F0D4F806B041ECB0
:103B9000100B10BD0000000000000000000000003D
:103BA000FB21E93F0000F07F00B52DED048BB0EE66
:103BB000409AF0EE609A83B051EC190B01F0E2FCF0
:103BC00041EC180B18EE100A18EE901A8DED008BD0
:103BD000002818BF0120084320F00040C0F17F609A
:103BE00000F1E040C00F14D019EE101A19EE900A3F
:103BF0008DED009B002918BF0121084320F00040F3
:103C0000C0F17F6000F1E040C00F04BF0120FCF76D
:103C1000C0FBB0EE480A03B0F0EE680ABDEC048BBE
:103C200000BD0000000000002DE9F14F04462DED1D
:103C3000020B2DED088B8AB09FEDE70B80ED020B98
:103C4000139EE74826F0004585420ADC9DED120BE5
:103C5000002084ED000B0AB0BDEC088B03B0BDE87A
:103C6000F08FE0489FEDE0AB9FEDE1BBA84247DD60
:103C7000E14F9FEDE39B9FEDE48B9DED120B53EC29
:103C80001A2B51EC100B002E1CDD01F047FD41EC0E
:103C9000100BBD4208D053EC1B2B51EC100B01F064
:103CA0003DFDC4E900010BE053EC192B51EC100B66
:103CB00001F034FD53EC182B01F030FDC4E9000194
:103CC0000120C8E701F074F841EC100BBD4208D0A8
:103CD00053EC1B2B51EC100B01F06AF8C4E9000106
:103CE0000BE053EC192B51EC100B01F061F853EC85
:103CF000182B01F05DF8C4E900014FF0FF30AAE78E
:103D0000C348A84279DB9DED120B51EC100B00F07B
:103D1000DBFC41EC180B9FEDC00B53EC102B01F0BA
:103D2000F1FA9FEDBF1B53EC112B01F041F801F0AC
:103D300053FA074601F07FFA41EC190B53EC1A2BAA
:103D400001F0E0FA53EC182B01F010FC41EC180BD9
:103D500053EC1B2B51EC190B01F0D4FADFF8C8A27D
:103D600041EC100B4FEA15580125FA4453EC102B87
:103D700051EC180B01F0D2FC032DC4E900013DD039
:103D8000C1F30A5005EB4511A8EB0000113981423F
:103D900034DA0AEB051BB0EE48AA9BED000BF0EEFF
:103DA00068AA53EC102B51EC190B01F0ABFA41EC63
:103DB0001B0B51EC1A0B53EC1B2B01F0AFFC41EC2D
:103DC000180B51EC1A0B53EC182B01F0A7FC53EC19
:103DD0001B2B01F0A3FC9BED020B41EC1A0B53ECE7
:103DE000102B51EC190B01F08DFA53EC1A2B01F04A
:103DF00095FC41EC100B6D1CB8E70EE0002EA8BF3F
:103E00003846BFF628AF94ED000B51EC100B00F0D4
:103E100091FFC4E9000178421DE7C6F3130040F4A6
:103E2000801EC6F30A50A0F2F530471100F01F05BE
:103E3000C5F12000DDF848B00890002006900790FA
:103E40000520EC467949002D07EB0002794408BFB4
:103E500051F8221009D051F8223001EB8201AB4019
:103E60004A68089922FA01F11943A1FB0E26A1FB29
:103E70000B131A449A4234BF0123002303EB0608B4
:103E80000CEB8003D3E901A60E448E4234BF01211E
:103E9000002192448A4411B1924502D903E092452F
:103EA00001D2012100E00021C3E901A641444CF800
:103EB0002010011EA0F10100C4DC029800F10050A6
:103EC000850F0298DDE903678000DDF8148001F0BA
:103ED000B2F941EC1A0B304601F0C4F99FED541BC6
:103EE00053EC112B01F00EFA41EC1B0B384601F09C
:103EF000B9F99FED511B53EC112B01F003FA41EC82
:103F0000180B404601F0AEF99FED4D1B53EC112B01
:103F100001F0F8F941EC190B51EC180B53EC192B8B
:103F200000F046FF53EC1B2B00F042FF53EC1A2B22
:103F300000F03EFFCDE90801002008909DED080B40
:103F400053EC1A2B51EC100B01F0E8FB53EC1B2B3C
:103F500001F0E4FB53EC182B01F0E0FB53EC192BC0
:103F600001F004FB9FED381B53EC112B01F0CAF953
:103F70009FED370B41EC180B53EC102B9DED080B0C
:103F800051EC100B01F0BEF953EC182B00F010FFB0
:103F90009FED310B41EC180B53EC102B9DED080BF2
:103FA00051EC100B01F0AEF953EC182B00F000FFB0
:103FB00041EC100B139810F0004F06D06D4251ECFD
:103FC000100B00F0B7FE41EC100B284684ED000BFF
:103FD00041E60000000000000000000000000000BA
:103FE000FB21E93F7CD9024000004054FB21F93F0E
:103FF0003163621A61B4D03DFB21F93F000000003B
:104000000000601A61B4D03D7370032E8A19A33B7F
:10401000FB2139410000000083C8C96D305FE43FD7
:10402000000000000000E03F3A1F0000881E000072
:10403000000000000000103E000000000000103CE6
:10404000000000000000103A182D4454FB21F93DF7
:104050003326A611460B113C00000054FB21F93D0C
:1040600010B52DED040B2DED088B82B0B0EE419A0A
:10407000F0EE619A0B9820F000449FED4BABB4F149
:10408000795F11DA9DED0A0B51EC100B01F0A4F8E9
:10409000002801BFB0EE4A0AF0EE6A0A02B0BDEC99
:1040A000088B04BF04B010BD9DED0A0B53EC102B20
:1040B00051EC100B01F026F941EC180B3C4806219D
:1040C000B0EE480AF0EE680A784400F081F853EC4C
:1040D000182B51EC100B01F015F99DED0A0B41EC7A
:1040E0001B0B53EC192B51EC100B01F00BF941ECAD
:1040F000190B53EC1B2B51EC180B01F003F953EC8B
:10410000192B01F00BFB9FED2C0B41EC190B53EC21
:10411000102B51EC180B01F0F5F841EC100B28486E
:10412000844210DA53EC192B51EC100B01F0F6FA23
:1041300053EC1A2B01F01AFA41EC100B02B0BDEC53
:10414000088B04B010BD1F48A042BCBF9FED1E1BD2
:104150008DED001B06DBA4F50010019000200090FF
:104160009DED001B51EC100B53EC112B01F0D6FA16
:104170009DED000B41EC180B53EC102B51EC1A0B7E
:1041800001F0CCFA41EC1A0B53EC192B51EC180B43
:1041900001F0C4FA53EC1A2B01F0E8F941EC100BD2
:1041A000CCE7000000000000000000000000F03F2D
:1041B000A41B000000000000000000000000E03F21
:1041C0003333D33F0000E93F000000000000D23F3E
:1041D00070B504462DED028B4D1E00EBC500B0EE10
:1041E000408AF0EE608A90ED000B35F0060017D0A3
:1041F00053EC182B51EC100B01F084F841EC100B30
:104200006D1E04EBC50090ED001B51EC100B53EC40
:10421000112B00F0CDFD41EC100B35F00600E7D17D
:10422000022D36D0042D1CD0062D1CBFBDEC028BF8
:1042300070BD53EC182B51EC100B01F063F894EDAA
:104240000A1B53EC112B00F0B3FD53EC182B01F0BB
:1042500059F894ED081B53EC112B00F0A9FD41EC2B
:10426000100B53EC182B51EC100B01F04BF894EDA4
:10427000061B53EC112B00F09BFD53EC182B01F0A7
:1042800041F894ED040B53EC102B00F091FD41EC40
:10429000100B53EC182B51EC100B01F033F894ED8C
:1042A000021B53EC112B00F083FD53EC182B01F093
:1042B00029F894ED001B53EC112B00F079FDBDECB7
:1042C000028B41EC100B70BD31B504462DED040B93
:1042D0002DED0A8BB0EE41BAF0EE61BA0B989DED70
:1042E0000A0B20F00040B0F1795F0DDA51EC100BB1
:1042F000FEF750FD042808BF00F0CAF89DED0A0B38
:10430000BDEC0A8B05B030BD53EC102B51EC100BFB
:1043100000F0F8FF41EC180B9DED0A0B53EC182B45
:1043200051EC100B00F0EEFF41EC190B2C48B0EEF5
:10433000480AF0EE680A05217844FFF749FF9FED2F
:104340002ACBB0EE40AAF0EE60AA9CB353EC1C2B33
:1043500051EC190B00F0D6FF41EC1C0B53EC1A2B5F
:1043600051EC190B00F0CEFF9FED210B41EC190B26
:1043700053EC102B51EC1B0B00F0C4FF53EC192B2A
:1043800001F0CCF953EC182B00F0BCFF53EC1B2BC5
:1043900001F0C4F953EC1C2B01F0C0F99DED0A1B90
:1043A00053EC112B01F0E2F8BDEC0A8B05B041ECA7
:1043B000100B30BDFFE753EC1A2B51EC180B00F03B
:1043C000A1FF53EC1C2B00F0F3FC53EC192B00F075
:1043D00099FF9DED0A1B53EC112B00F0E9FCE3E77C
:1043E000341A000000000000495555555555C5BF09
:1043F000000000000000E03F9FED070B10B553ECFC
:10440000102B9FED070B51EC100B00F08DFD41ECD4
:10441000100B10BD000000000000000000000000B4
:10442000000000000000F03F10B553EC102B51ECE1
:10443000100B00F0BDFC41EC100B10BD10B553EC9F
:10444000112B51EC100B00F0B3FC41EC100B10BD24
:104450009FED050B10B553EC102B51EC100B00F039
:1044600063FD41EC100B10BD0000000000000000D7
:104470009FED050B10B553EC102B51EC100B00F019
:1044800041FF41EC100B10BD000000000000007067
:104490009FED050B10B553EC102B51EC100B00F0F9
:1044A00031FF41EC100B10BD0000000000000010B7
:1044B00000200549086000BF03E00021034A1154B1
:1044C000401C1428F9DB704788000020600300209E
:1044D00010B50D4800F0E8F801210B4800F08AF80B
:1044E0000221094800F086F84CF250331A460121A7
:1044F0000548FEF76FFB4CF250331A460221024882
:10450000FEF768FB10BD0000006800402DE9F04197
:1045100088B080460D460024314903C9CDE9060123
:1045200005F540700190029000208DF80C008DF888
:104530000D0008208DF80E0000BF4CE006A810F812
:1045400034008DF80F0006A830F83400010A8DF809
:10455000101006A850F83400010C8DF8111006A8B0
:1045600050F83400000E8DF8120006A800EBC400CD
:1045700001798DF8131006A800EBC4008088010AA9
:104580008DF8141006A800EBC4004068010C8DF8EB
:10459000151006A800EBC4004068000E8DF8160048
:1045A00001A94046FCF7C6FC064600270AE07F1C2E
:1045B00042F21070874205D102220AA10C48FEF790
:1045C00069FA05E031464046FCF748FD0128EED186
:1045D00000BF601CC4B2012CB0DB08B0BDE8F081A4
:1045E000E85A0008737475636B20256400000000AE
:1045F00000500040F0B587B006460C46254903C977
:10460000CDE9050104F540700090019000208DF87F
:1046100008008DF8090008208DF80A000598C0B23E
:104620008DF80B000598010A8DF80C100598010C07
:104630008DF80D100598000E8DF80E000698C1B289
:104640008DF80F100698010A8DF810100698010CCD
:104650008DF811100698000E8DF81200694630464C
:10466000FCF768FC074600250AE06D1C42F210705A
:10467000854205D1012208A10A48FEF70BFA05E0A0
:1046800039463046FCF7EAFC0128EED100BF07B0FE
:10469000F0BD0000E05A0008737475636B20256458
:1046A00000000000005000401CB50446054903C945
:1046B000CDE9000108236A4600212046FCF71EFDD3
:1046C0001CBD0000D85A000882B0CDE9000121F0DD
:1046D000004001909DED000B02B051EC100B7047B3
:1046E000204890ED000A2048D0ED000A30EE200A64
:1046F000DFED1E0AB4EEE00AF1EE10FA0CDD194807
:1047000090ED000A1848D0ED000A30EE200ADFEDE7
:10471000180A30EE600A7047124890ED000A1248FD
:10472000D0ED000A30EE200ADFED120AB4EEE00A06
:10473000F1EE10FA0CD20B4890ED000A0A48D0EDC9
:10474000000A30EE200ADFED0A0A30EE200AE2E726
:10475000044890ED000A0448D0ED000A30EE200A2B
:10476000D9E70000000000200C00002000003443C6
:104770000000B443000034C30448017821B1002094
:10478000024A1070012070470020FCE7E60000207C
:1047900010B52DED108B3648006801F0A9F841ECFA
:1047A000190B344890ED000AB1EE400ADFED320AF1
:1047B00020EE200ADFED310A80EE201A11EE104AB9
:1047C000204601F095F841EC1F0BB0EE4F0AF0EED9
:1047D0006F0AFFF785F9B0EE40DAF0EE60DA2848AC
:1047E000006801F085F841EC1E0B53EC1D2B00F026
:1047F00089FD41EC1B0B1F4890ED000AB1EE400A09
:10480000DFED1D0A20EE200ADFED1C0A80EE201AE3
:1048100011EE104A204601F06BF841EC1F0BB0EE90
:104820004F0AF0EE6F0AFEF7CFFAB0EE40DAF0EE84
:1048300060DA1448006801F05BF841EC1E0B53ECA1
:104840001D2B00F05FFD41EC1C0B53EC1B2B00F00B
:10485000AFFA41EC1A0B53EC192B00F0A9FA41EC1A
:10486000180B00F073FA00EE100ABDEC108B10BDAF
:10487000100000200C000020DB0F494000003443F2
:10488000080000200400002010B52DED108B3648E4
:10489000006801F02DF841EC190B344890ED000A46
:1048A000B1EE400ADFED320A20EE200ADFED310AD8
:1048B00080EE201A11EE104A204601F019F841EC62
:1048C0001F0BB0EE4F0AF0EE6F0AFFF709F9B0EEDA
:1048D00040DAF0EE60DA2848006801F009F841ECAF
:1048E0001E0B53EC1D2B00F00DFD41EC1B0B1F4864
:1048F00090ED000AB1EE400ADFED1D0A20EE200A1D
:10490000DFED1C0A80EE201A11EE104A204600F05E
:10491000EFFF41EC1F0BB0EE4F0AF0EE6F0AFEF70F
:1049200053FAB0EE40DAF0EE60DA1448006800F0B6
:10493000DFFF41EC1E0B53EC1D2B00F0E3FC41ECC0
:104940001C0B53EC1B2B00F0E9FE41EC1A0B53EC53
:10495000192B00F02DFA41EC180B00F0F7F900EEDE
:10496000100ABDEC108B10BD140000200C000020BC
:10497000DB0F494000003443040000200800002001
:10498000F0B503460D461646002729460A2E03D0E9
:10499000002008702846F0BD33B9302001F8010B23
:1049A000002008702846F6E7002B03DA2D2001F8D6
:1049B000010B5B420A4A0DE0B3FBF2F404B937B1D4
:1049C00004F1300001F8010B04FB123301270A2027
:1049D000B2FBF0F2002AEFD1002008702846DAE797
:1049E00000E1F50510B52DED028B00BF00BF00BF43
:1049F00000F0FAF832A13648FEF74CF8802135482D
:104A0000FCF74CFE5BE056E0334890ED180ABDEE33
:104A1000C00A10EE102A31A12D48FEF73BF82E48AF
:104A200090ED1B0ABDEEC00A10EE102A2BA12848FB
:104A3000FEF730F8284890ED200ABDEEC00A10EECF
:104A4000102A26A12248FEF725F8234890ED170AE0
:104A5000BDEEC00A10EE102A20A11D48FEF71AF87C
:104A60001D481FA1D0F8CC211948FEF713F81A48A9
:104A700090ED200AF0EE401A90ED1F0AB0EE401AB9
:104A8000DFED190A9FED180AFCF74AFDB0EE408AE7
:104A9000F0EE608A9FED150B53EC102B51EC180BC8
:104AA00000F02EFD07D201211248FFF72FFD022151
:104AB0001048FFF72BFDFFF75FFE0028A4D1A2E707
:104AC000696E69747375636573730D0A0000000085
:104AD00000500040001002403C0100202564090005
:104AE00025640D0A00000000000000000000000026
:104AF0000070C7400068004010B54FF48071324824
:104B0000FCF7C3FD48B9314890ED000AF7EE000A02
:104B100030EE200A80ED000A4DE02C4890ED000AAE
:104B2000B5EEC00AF1EE10FA40DD2948D0ED1A0AC0
:104B300090ED171A70EE810AB0EE600AFCF7E6FEFF
:104B40002248D0ED000A20EE200AF6EE000A20EE00
:104B5000200A9FED201AC0EE010A9FED1F0A30EED9
:104B6000800A1E4880ED000A90ED000AF1EE040A6A
:104B7000B4EEE00AF1EE10FA0FD21948D0ED000AB7
:104B8000164890ED000ABDEEC00AB8EEC00A30EE3D
:104B9000800A134880ED000A08E0114890ED000AF1
:104BA000F7EE000A30EE200A80ED000A9FED0D0AB4
:104BB000064880ED000A0A4890ED000ABDEEC00AE2
:104BC00010EE100A10BD000000100240500000203E
:104BD0003C010020000018423333333F58000020CE
:104BE000540000200000000010B54FF4A060FCF756
:104BF000F1FDFCF759FDFFF76BFC00F085F843F67B
:104C00009820FCF76EFC80210348FCF747FD9FEDE0
:104C1000030AFCF7CFFF10BD0010024000000000A7
:104C2000014880ED000A704700000020014908603B
:104C3000704700001C010020014908607047000017
:104C400018010020014880ED000A70470400002090
:104C5000014880ED000A704708000020014880EDFF
:104C6000000A70470C010020014880ED000A7047DF
:104C700010010020F1EE400AFDEEE00AF8EEE00A35
:104C80009FED041A60EE810AFDEEE00A10EE900A34
:104C9000704700000000804500B52DED048B83B007
:104CA00041EC190B00F06EFC41EC180B18EE100AE9
:104CB00018EE901A8DED008B002818BF01200843D4
:104CC00020F00040C0F17F6000F1E040C00F14D040
:104CD00019EE101A19EE900A8DED009B002918BFED
:104CE0000121084320F00040C0F17F6000F1E04066
:104CF000C00F04BF0120FBF74CFB51EC180B03B0B5
:104D0000BDEC048B00BD000019200849087000218B
:104D10000648C0F8B010491EC0F8A0109FED040A64
:104D200080ED300A0121C0F88C1170473C01002051
:104D30000000000081F00041704780F000407047A3
:104D400021F00041704720F00040704721F0004200
:104D5000A2F16052B2F5801F01F0004328BFD2F1EA
:104D60007F6C0BD95FEA001C43EAC20242EB507031
:104D700018BF704728BF20F001007047B2F5801FB0
:104D8000BCBF184670474FEA410C1CF5001F02D209
:104D9000084600F023BE70B500F05EFB00000089FD
:104DA000FFF7F6BF4FF00040A0F58000704700000D
:104DB00010B591EA030F48BF83F0004300F1B684B9
:104DC000841A71EB030C05D2121943EB0C03001B80
:104DD00061EB0C01DFF824E14FEA1154A4EB135C02
:104DE0001EEA430F18BF9EEA445F73D023EA0E0306
:104DF000DCF1200E21EA045143F4801332D322FA6D
:104E00000CFE10EB0E0023FA0CFE41EB0E01CCF170
:104E1000200E03FA0EFE10EB0E0051F10001B1F569
:104E2000801FCCF1200E32D201EB045112FA0EF2A7
:104E3000BDE8104058BF7047401C38BF5FEA4202CF
:104E400018BF7047002814BF20F0010041F1000195
:104E50004FEA410313F5001F38BF7047A1F1C0416D
:104E600000F048BB012A43EB0302ACF1200CDCF15B
:104E70001F0E32BF4FF0000E23FA0CF310EB0300AD
:104E800041EB0451B4EB115FD0D0A1EB045101F51B
:104E9000801149085FEA300001EB04510ED350F154
:104EA000000038BF12FA0EFE08D1BDE81040C9E775
:104EB000401C38BF5FEA4202CAD1C3E7BDE81040D8
:104EC0004FEA410313F5001F38BF7047A1F1C041FD
:104ED00000F010BB9EEA445F08D011EA5E0FBDE807
:104EE000104004BF01F0004100207047BDE81040B1
:104EF00070B500F0B1FA00BF64FBBE3E0000E0FFF9
:104F000002494FF0000000F06EBD00BF0000F87FC6
:104F1000491058BFC1F140415B1058BFC3F1404335
:104F20008B42EFF3008070472DE9C04130B4DFF8C9
:104F3000A0C23CEA111418BF3CEA131400F0EC8044
:104F400081EA03051CEA111444EAD57418BF1CEA6F
:104F5000131500F0C780A4EB05044FF0004545EAA7
:104F6000C12145EAC32341EA505143EA525304F1B7
:104F70007F74994204F500344FEAC0204FEAC22200
:104F800008BF904200F09C804FEA13650FF2401674
:104F9000765D4FEA134506FB05F7C7F1807706FB00
:104FA00007F74FEAD737A7FB03687642C8F5803882
:104FB000A7FB06CE38BFA8F1010807FB08E64FF0B3
:104FC000000EA6FB028CE6FB03CEDCF1000CCEF15A
:104FD000004E38BFAEF1010EA6FB0C584FF0000793
:104FE0004FF00005E6FB0E87A1FB08C6A0FB07CE2D
:104FF00016EB0E0645F10005E1FB076515F1E04EE5
:105000007EBFA4F580345FEA46066D4116F1800745
:1050100045F100054FEA17274FEA066647EA05679C
:10502000A6F1DE46B6F1805F4FEA15251FD9384656
:1050300024F0010C05EBC471BCF1FE6F01EB0C1107
:1050400002D8F0BCBDE8008124425CBF01F5801E9F
:105050009EEAC47F02D4F0BCBDE80081244238D46B
:10506000F0BCA1F1C041BDE8004100F043BA4FEAF5
:10507000D22242EA43524FEAD323A7FB02864FEAE9
:10508000D02040EA415007FB03661EEA0E0F4FEAAC
:10509000D12105FB026658BFA6EB0056B6EB0056C1
:1050A0004FEA520E4EEAC37E18EB0E0E56EB530E2D
:1050B000BDD518EB02085E417F1C55F10005B6E72F
:1050C0004FF480154FF000074FF000064FF0000836
:1050D000ADE7F0BC4FF0000001F1C04101F000412C
:1050E000BDE8008111EA0C1F0CEA131500D00CE09A
:1050F00013EA0C1F00F025804FF00000F0BC81EA9D
:10510000030101F00041BDE80081F0BCBDE80041B1
:1051100081EA030100F0EEB9F0BCBDE8004170B5D2
:1051200000F09AF9097EFC3E00F007B881EA03011D
:105130004FF0000001F00041704781EA030100F0E8
:10514000D9B9F0BCBDE800414FF0000021497047DB
:10515000FFFDFBF9F7F5F4F2F0EEEDEBE9E8E6E43C
:10516000E3E1E0DEDDDBDAD8D7D5D4D3D1D0CFCDC3
:10517000CCCBCAC8C7C6C5C4C2C1C0BFBEBDBCBBFC
:10518000BAB9B8B7B6B5B4B3B2B1B0AFAEADACABF7
:10519000AAA9A8A8A7A6A5A4A3A3A2A1A09F9F9ED1
:1051A0009D9C9C9B9A999998979796959594939383
:1051B000929191908F8F8E8E8D8C8C8B8B8A89891A
:1051C000888887878685858484838382828181809D
:1051D0000000FF070000F87F4FEA41034FEA5353F6
:1051E000A3F58063D3F11E03C8BFD3F1210C0CDDFE
:1051F0004FF0004242EAC12242EA505232FA03FC26
:105200008CEAE17CACEBE1707047102BC4BF00204E
:10521000704703F5787CBCF1FF3F04D06FF000428B
:1052200082EA2100704770B500F016F94992248097
:1052300000207047F2E710F0004248BF4042B0FA49
:1052400080F310FA03F10AD0C3F11D0303F5806364
:105250004FEA415002EB035202EBD12170474FF06D
:1052600000007047B0FA80F310FA03F10AD0C3F1DE
:105270001D0303F580634FEA41504FEA035202EBEE
:10528000D12170474FF000007047000051EA030C35
:1052900017D41CF5801F58BFBCF5801F00F1068095
:1052A000994218BF704708BF9042704707D711F561
:1052B000801F58BF13F5801F19D499427047894247
:1052C00070471CF5801F08D5BCF5801FF7D58B42B1
:1052D00018BF704708BF824270474FF4001C1CEB98
:1052E000410F38BF1CEB430F01D28B42704770B5A2
:1052F00000F0B2F8922449004FF000514FF0805373
:10530000FFF706BEDFF848C170B51CEA111E1EBFCC
:105310001CEA13159EEA0C0F95EA0C0F00F06F8043
:1053200081EA030423EA4C134EEAD47E21EA4C11AD
:1053300041F4801143F48013AE44A1FB024CA0FB66
:105340000365AEF17F7E361955EB0C05A1FB034CCE
:105350004CF10003A0FB021C16EB0C06654153F157
:105360000003094218BF46F0010613F4007F0BD179
:105370004FEA03314FEA0530340341EA155140EA60
:1053800016506FF003020AE04FEAC3214FEAC5202E
:10539000F40241EA555140EA56506FF0020202EB26
:1053A0002E4201EB025585EACE710AD05FEA440C29
:1053B00018BF24F0004450F1000041F1000120EA40
:1053C000D47040F2FE7C624500D270BDA84214BF8A
:1053D0004FF080444FF04044002E08BF0024BEF13F
:1053E000806FA8BFA1F1C041BDE8704080F282800B
:1053F0004FF0000001F1C04101F0004170479EEA0A
:105400000C0F0CEA131518BF95EA0C0F06D04FF0DD
:10541000000081EA030E0EF0004170BD00F01CF8A0
:105420008900013E00F007B800F009B84FEA430CCC
:105430005FEA5C5C08D081EA030100F05BB84FEAE8
:10544000410C5FEA5C5CF6D14FF000000149704707
:105450000000FF070000F87F0EF1020E2EF0030E91
:105460005EF8046B364205D4012A43EB030515F5BB
:10547000001F12D8012841EB010C1CF5001F0CD8AD
:105480000ED14FEAD17C15F5001F0CEB4C0C0CF142
:10549000020C08BF4CEBD37C04E04FF0080C01E099
:1054A0004FEAD37C0CEB4C0526FA05F606F007060E
:1054B000B6F1040C06D20EEB860CBDE870404CF041
:1054C000010C6047DFE80CF0090B02024FF00041CD
:1054D0004FF00000A1F5002170BD194610460128CB
:1054E00051EB010418BFD4F5001484BF002001F073
:1054F000004170BD0808A0F500114FEA3101704766
:1055000053EA010C17D41CF5801F58BFBCF5801F4F
:1055100000F106808B4218BF704708BF8242704777
:1055200007D713F5801F58BF11F5801F19D48B4280
:1055300070479B4270471CF5801F08D5BCF5801F43
:10554000F7D5994218BF704708BF904270474FF493
:10555000001C1CEB430F38BF1CEB410F01D29942DA
:1055600070470FB40CBC03BCFFF7C1BE91EA030F38
:1055700010B581F000413FF523AC83F0004300F00B
:10558000D5B800002DE9F04101F5801CBCF5001FE5
:10559000C0F2A9804FEA115C21EA0C510CF1FD0C1C
:1055A00041F480115FEA5C0C0CF5C07C01D3400033
:1055B000494130A4890241EA905187028E0E0A0CBB
:1055C000A45D04FB04F602FB06F6C6F14046A4FB0C
:1055D0000662F60D46EA422606FB06F4A4FB01230A
:1055E0005242C3F1404338BF5B1EA6FB0242002477
:1055F000E6FB0324D20B42EA4446A6FB0623A1FBAA
:1056000002E2A3FB07E4E3FB61426442C2F1404EC5
:1056100038BFAEF1010EA6FB04234FF00002E6FBFB
:105620000E32A2FB03463400E2FB6264A1FB06E6F5
:10563000A4FB07E8E4FB61687642C8F1405838BF34
:10564000A8F10108A2FB06E4A3FB08E5E2FB68540D
:10565000A1FB05E6A7FB04E8E1FB648618F1200541
:1056600056F10006A809A8F11B08B10908F03F0887
:10567000B8F10A0F40EA86601CD901EB0C51BDE875
:10568000F08100BFFCF5EEE8E2DDD8D3CFCBC7C395
:10569000C0BDB9B6B4B1AEACA9A7A5A3A19F9D9B4F
:1056A0009A9896959392908F8D8C8B898887868512
:1056B00084838281A0FB006800FB01F208EB4208B2
:1056C000B8EB872807D5341858EB0104D5D5401C12
:1056D00051F10001D1E7341A78EB0104CDD4401E1A
:1056E00071F10001C9E75FEA4C0C5FEA9C5C0DD1E7
:1056F00005D34FF0000001F00041BDE8F081BDE8A6
:10570000F04170B5FFF7A8FE6DDBFFBEBDE8F041CC
:105710004FF00000004970470000F87F10B591EA93
:10572000030F48BF83F000433FF54AAB841A71EB87
:10573000030C07D212198CF0004C43EB0C03001B36
:1057400061EB0C01DFF8A4E14FEA1154A4EB135C08
:105750001EEA430F18BF9EEA445F00F0B08023EAC0
:105760006E03524221EA0451C3EB6E0338BF5B1E45
:10577000DCF1200E25D322FA0CFE10EB0E0043FACA
:105780000CFE41EB0E01CCF1200E03FA0EFE10EBE5
:105790000E0051F10001CCF1200E29D412FA0EF2C4
:1057A00001EB0451BDE8104058BF7047401C1CBFBE
:1057B000B2F1004F704700280CBF491C20F00100D7
:1057C000704712EB020E43EB030218BF4FF0010EBD
:1057D0004EEA4202ACF1200CDCF11E0E54D943FA21
:1057E0000CFE10EB0E0051F1FF31CCF11E0ED5D5A1
:1057F0000EF1010E12FA0EFE404141EB010101EBE8
:10580000445C5FEA5C5C10D910EBDE7001EB045184
:1058100038BFBEF1004FBDE8104018BF70470028E8
:105820000CBF491C20F00100704730D24FEAD42C45
:1058300011F5001124F400641BD0B1FA81F20B3A87
:10584000A41AA41ED2F12003914030FA03F31943A5
:10585000904001EBCC71002C01EB0451BDE81040ED
:10586000A8BF704701F1C0414FF0000001F00041B6
:105870007047B0FA80F310FA03F100D110BDE41ABA
:10588000173C4805C90AE4E701EB045110BD491073
:1058900001EB0451BDE810404FEA300002E04FF048
:1058A000000170474A0008BF0042F8D0B2F5001F5F
:1058B00028BF704701F000414FF0000070479EEA9A
:1058C000445F07D011EA5E0FBDE8104004BF00211D
:1058D00000207047BDE8104070B5FFF7BDFD00BF68
:1058E00040DFF63E83F00041104670470000E0FFC5
:1058F00043004FEAD30C4FEA3C0C43401FBF400724
:105900000CF1605113F0FE4F70471CF0006F03D193
:1059100000200CF0004170470CF0004343EA507047
:1059200010B540EACC0000F00EF800BF0000009275
:105930004FEA0001FFF7DEBD4FF000414FF00000DD
:10594000A1F5002170470EF1020E2EF0030E5EF855
:10595000044B244204D44FEA4102B2F17F4F11D8E4
:105960004FEA4003B3F17F4F0CD80ED14FEAD07C01
:10597000B2F17F4F0CEB4C0C0CF1020C08BF4CEB5E
:10598000D17C04E04FF0080C01E04FEAD17C0CEB35
:105990004C0324FA03F404F00704B4F1040C06D217
:1059A0000EEB840CBDE810404CF0010C6047DFE8C2
:1059B0000CF0070802024FF00040A0F5800010BD77
:1059C0000846420018BFD2F1807288BF00F0004044
:1059D00010BD4FF04070E1EE100A7047FF2141EA20
:1059E000D050C00570470CF00F03092B08BF0820EA
:1059F00000F059800A2B0BD0082B18BF704708BF46
:105A00001CF0400F0AD04FF000004FF0000170472B
:105A10001CF0400F18BF4FF0004070471CF0100FF3
:105A200008D020F0704300F07F4242EAD3014FEAF1
:105A30004370704700F0604021F07F4242EA00026C
:105A400001F07F4040EA727070474FF0FF0C4CF459
:105A5000E06C1CEA11531CBF9CEA030C9445C2BFC6
:105A6000DA4201EB02517047002B0DD0BCF1000F60
:105A70000FD0002A01F00041A4BF41F0E04141F005
:105A80007F614FF00000704701F000414FF00000CF
:105A9000704750EA01334FF09B0C18BF4CF0806CFC
:105AA0007FF42EAA70471CF4801F11D01CF4E02F45
:105AB00003D06FEACC31490070474FF04050EFF30C
:105AC000008222F0704242EA000282F300887047AE
:105AD0004FF00000704700000100000000000000CF
