:020000040800F2
:10000000004A00206D020008F13100083D3100086F
:10001000ED310008DD1F00085D470008000000000A
:100020000000000000000000000000005D35000836
:10003000792F0008000000008302000885020008F4
:10004000870200088702000887020008870200086C
:10005000870200088702000887020008870200085C
:10006000870200088702000887020008870200084C
:10007000870200088702000887020008870200083C
:10008000870200088702000887020008870200082C
:10009000E11F0008870200088702000887020008A5
:1000A00087020008C9370008870200088702000895
:1000B000E53700083938000835390008870200089C
:1000C00087020008870200088702000887020008EC
:1000D00087020008AD3E0008A93F000899400008CB
:1000E00087020008870200088702000887020008CC
:1000F000893900088702000887020008692C000877
:1001000087020008870200086D390008870200088E
:1001100087020008513D0008870200088702000896
:10012000870200088702000887020008870200088B
:10013000870200088702000887020008870200087B
:1001400015210008870200088702000887020008BE
:10015000870200088702000887020008870200085B
:10016000870200088702000887020008870200084B
:10017000870200088702000887020008870200083B
:10018000870200088702000800F002F800F05FF81C
:100190000AA090E8000C82448344AAF10107DA45E2
:1001A00001D100F054F8AFF2090EBAE80F0013F0D5
:1001B000010F18BFFB1A43F001031847207B000012
:1001C000407B00000A4410F8014B14F00F0508BFF3
:1001D00010F8015B240908BF10F8014B6D1E05D013
:1001E00010F8013B6D1E01F8013BF9D1641E03D0EC
:1001F000641E01F8015BFBD19142E4D3704700001B
:100200000023002400250026103A28BF78C1FBD81F
:10021000520728BF30C148BF0B607047662907F0FE
:100220003083002070471FB507F021FB00F0DAFB98
:1002300004000020002106F079FC401C60600020D2
:10024000002106F05DFCE0601FBD10B510BD00F0A0
:10025000EEFC1146FFF7E7FF06F0D6FA00F066FF66
:1002600003B4FFF7F2FF03BC00F0AAFF0948804780
:1002700009480047FEE7FEE7FEE7FEE7FEE7FEE788
:10028000FEE7FEE7FEE7FEE704480549054A064BA0
:100290007047000061370008890100080004002051
:1002A000004A002000460020004600200FB41CB584
:1002B000084B06AA7B4469460090059800F023FB92
:1002C00004460020694600F031FB20461CBC5DF866
:1002D00014FB0000750600002DE9F0410E460446AF
:1002E000002020622046E168884730B3252805D0E9
:1002F000D4E901219047206A401CF2E7E1682046DA
:1003000000278847050018D0A5F14100192802D818
:1003100020354FF400673246294620462760FFF714
:100320007DFF40B1012804D0F61D26F007060836EF
:10033000D8E7361DD6E72846DAE7206ABDE8F0811F
:1003400040EA010370B59B072ED14FF00136042A15
:100350002AD308C810C99D1B9D43121F15EAC61554
:1003600017D0D8B2E1B2401A50EA056110D198B264
:10037000A1B2401A50EA05410AD123F07F4024F08F
:100380007F41401A50EA052102D1180EA0EB1460FB
:1003900070BDA342DBD018BA21BA884201D901202E
:1003A00070BD4FF0FF3070BD0AB9002070BD10F86D
:1003B000013B11F8014B63B1A3420AD1521E08D090
:1003C00010F8013B11F8014B1BB1A34201D1521EA1
:1003D000EDD1181B70BD032A40F2308010F0030CE1
:1003E00000F0158011F8013BBCF1020F624498BF88
:1003F00011F801CB00F8013B38BF11F8013BA2F125
:10040000040298BF00F801CB38BF00F8013B11F09F
:10041000030300F02580083AC0F0088051F8043B3F
:10042000083A51F804CBA0E80810F5E7121D5CBFAC
:1004300051F8043B40F8043BAFF30080D20724BFDF
:1004400011F8013B11F801CB48BF11F8012B24BF73
:1004500000F8013B00F801CB48BF00F8012B7047C2
:1004600010B5203AC0F00B80B1E81850203AA0E84F
:100470001850B1E81850A0E81850BFF4F5AF5FEA83
:10048000027C24BFB1E81850A0E8185044BF18C936
:1004900018C0BDE810405FEA827C24BF51F8043BDD
:1004A00040F8043B08BF7047D20728BF31F8023B31
:1004B00048BF11F8012B28BF20F8023B48BF00F8C5
:1004C000012B704770477047704710B500F08EFAE7
:1004D000006810BD10B5044600F088FA046010BD35
:1004E00070472DE9FF4F0C461E464FF0FF378BB08B
:1004F000D2E90001DDF860800A908A46C1F30A550E
:1005000005B93D46002108464FF00000BAF1000F42
:1005100000F4400005DA00EB80004FF4400101EAEE
:1005200050004FEA9059B9F1010F00DDB9460A9821
:1005300050EA4A000ED044F61050A5F2FF3545436C
:100540002F14B8F1000F1ED07542291E1EDDC9F10F
:1005500000021CE0B8F1010F4FF0000001D0302183
:1005600003E0F24305E02154401CB042FBDB30467F
:100570000022002121540B99C1F80880C1E9002014
:100580000FB0BDE8F08FBD1B6D1CDEE74A4600DAF8
:10059000694206A800F0DCFA06AB93E8070003AB5B
:1005A00083E8070050460A9901F05BF88DE80700E0
:1005B000A0F500501F3800900398002D09DD42F28D
:1005C0001F014A46084403A90390684601F0E5FA72
:1005D00008E0A0F500504A461F3803A9039068467A
:1005E00001F003FB8DE807000004000C03D04FF07E
:1005F000FF30410800E01046B8F1000F03D00022A0
:10060000009215461EE0751E05D400F0F3F9303255
:1006100062556D1EF9D5B3460122084302D000226F
:100620007F1C04E02078302801D100227F1E002AA0
:10063000099786D01DE0112D07DA00F0DBF9303282
:1006400062556D1C50EA0102F5D1084302D00098B2
:10065000C8B10EE00021681E05E0235C625C6354B3
:100660002254401E491C8142F7DBAB46A81B401EAA
:100670000990002004F80B000B98099AC0F8088034
:10068000C0E9002B7CE711264FF0000859E72DE95F
:10069000F04F88460446D21D22F0070191B0D1E9FF
:1006A0000001CDE90A0104F04DF902460B98C00F94
:1006B00001D02D2007E02068810701D52B2002E022
:1006C000202101EAC000032A099001D0072A05DB96
:1006D00003464146204600F0DBF90BE12078800616
:1006E00001D5E06900E00620B8F1650F814606D02B
:1006F000B8F1660F18D0B8F1670F70D131E0002063
:10070000B9F1110F009001DB112301E009F10103A0
:100710000AAA01A90CA8FFF7E4FEDDE90C70002687
:1007200009F10105834647E001204B4600904FF058
:1007300000470AAA01A90CA8FFF7D3FEDDE90DB016
:100740000C995D46002610B909F101000D18B9EBAE
:10075000050003D4C0F1FF3609F10105A5EB09003E
:100760002BE0B9F1010F01DA4FF001090020B9F1D6
:10077000110F0090484601DD112300E003460AAA4C
:1007800001A90CA8FFF7ADFEDDE90C704D4600266F
:100790008346207800070AD4AB4500DA5D4601A8FD
:1007A000012D04DD411911F8011C302907D04F45F6
:1007B00002DA17F1040F04DA012082460FE06D1E01
:1007C000EEE7002F02DCED1B3E4403E0781CA8425C
:1007D00000DD7D1CB81B00F1010A4FF000472078B6
:1007E000000703D4AA4501DB4FF0FF3A0021B7F11F
:1007F000004F0DF143088DF8431024D002202B2325
:10080000002F01DA7F422D230A21021EA0F10100F0
:1008100000DC5FB197FBF1FC97FBF1F201FB1C7C64
:1008200017460CF1300C08F801CDEEE7A8F10100F5
:1008300003702188090501D5452100E06521A0F15B
:10084000010800F8011C09980FA9A1EB0807FF1D7A
:1008500000B10120411901EBEA70A1693844081A7E
:10086000401EA0612078C00602D42046AFF300806D
:10087000099828B1D4E901219047206A401C2062E0
:100880002078C00622D52046AFF300801EE0002E5F
:1008900004DBB34502DD01A8805D00E03020D4E92F
:1008A00001219047206A401C2062761CAAF10100B9
:1008B0005FEA000A0AD100F095F8C0680168405C60
:1008C000D4E901219047206A401C2062281EA5F12E
:1008D0000105DCDC07E0D4E9012118F8010B9047A1
:1008E000206A401C2062381EA7F10107F3DC204675
:1008F000AFF30080032011B043E6000001694A1CF9
:1009000002610878704700B58FB0CDE90131002150
:10091000059105497944CDE9031011466846FFF772
:10092000DBFC0FB000BD0000E5FFFFFF0A6802F826
:10093000010B0A60704700000FB4002300B589B0B6
:100940000CA900910B99CB60214B7B440693214B62
:100950007B44079304236FF00042CDE901321E4A25
:100960007A446B4608920246002006F0ECFF09B07C
:100970005DF814FB70B506464FF0FF3015460C4687
:10098000324686B00091CDE901016946002004900D
:1009900004A8FFF7D1FF02460498211825B108B139
:1009A000084600E020462860049800280DD0002A60
:1009B00002DD0098884208D03246081B6946009440
:1009C000CDE9010404A8FFF7B7FF06B070BD000031
:1009D000C3010000DB0100001B010000004870475C
:1009E0009C03002000487047BC030020004870476B
:1009F0009C03002030B5B0F10A024FEA900E71F16D
:100A000000034EEA817EB0EB0E0061EB91014FEAEC
:100A1000101E4EEA017E10EB0E0041EB11114FEA61
:100A2000102E4EEA016E10EB0E0041EB11214FEA41
:100A3000104E4EEA014E10EB0E0041EB11414018F2
:100A400041F100014FEAD00040EA41704FEAD10184
:100A500010EB80054FEA810444EA907444EB0104F2
:100A60006D1944EB0404521BA3414FF0000348BF2F
:100A70000A3200D530BD401C41F1000130BD10B537
:100A8000044600F0F9F80068005D00F0010010BDB8
:100A90002DE9F0411F46044603260168072A01F4A8
:100AA000006004DB08B116A505E016A503E008B157
:100AB00015A500E015A521F010002060A069C01E5A
:100AC000A0610FB1401EA0612046AFF300804FB17E
:100AD000D4E9012138469047206A401C2062C01C9E
:100AE000206206E0206AFAE7D4E9012115F8010B3B
:100AF0009047761EF8D22046AFF30080BDE8F08123
:100B00004E414E006E616E00494E4600696E6600B1
:100B1000426842B1016811F8013B23B1521EC0E99D
:100B20000012184670470121C160881E7047426854
:100B30005AB1C368016843B983688B4205D0491E26
:100B4000521CC0E90012002070474FF0FF30704780
:100B50002DE9F047814616468AB0334878440DC8DF
:100B60008DE80D0030487844801C03AC0DC884E843
:100B70000D0041F69B300844372190FBF1F290FBC9
:100B8000F1F5A5F1800501FB12041B3C02D564427E
:100B9000012000E00020DFF890A080460027FA4402
:100BA000AAF1BE0A0DE0E00709D03246684607EB1D
:100BB00047010AEB810101F018F88DE80700641085
:100BC0007F1C002CEFD1184F7F44AC3F18E0E807A2
:100BD00014D007EB04100DF1180A90E80E008AE813
:100BE0000E00C068F04201D198190890324606A95B
:100BF00003A800F0FAFF03AB83E807006D10641C44
:100C0000002DE4D132466946B8F1000F03A802D0A6
:100C100000F0C3FF01E000F0E8FFC9E90001C9F8F6
:100C200008200AB0BDE8F08764710000704775467F
:100C3000FFF7D4FEAE4605006946534620F0070094
:100C4000854618B020B5FFF71FFBBDE820404FF0E8
:100C500000064FF000074FF000084FF0000B21F0A6
:100C60000701AC46ACE8C009ACE8C009ACE8C00973
:100C7000ACE8C0098D46704710B5FFF7B3FE001D04
:100C800010BD00BFA95E00002DE9FF4F064689B0E8
:100C90000878FF2806D0491C2D2805D000244FF0E5
:100CA000000908E000200CE00124F8E709EB8903C3
:100CB000491C00EB43090878FF28F7D114B1C9F1AA
:100CC00000008146107800252C46AA4629462D288A
:100CD00001D02B2804D1521C2D2813D0002082468D
:100CE0008B461078FF280FD04FF0000C0A21521CC1
:100CF000A5FB017804FB018105FB0C11C5194BEB29
:100D00000104EEE70120EAE7002108464FF0000069
:100D1000BAF1000F02D000EB80004008C0F3815808
:100D2000B8F1010F01DD4FF0FF380C9809EB000717
:100D300055EA040009D04FF0020917F5FA7F0BDAE3
:100D40004FEACA70C6E900B012E04FEACA70C6E9BD
:100D500000B00DB0BDE8F08FB7F5FA7F0DDDF048BB
:100D60007844D0E90010C6E9001040EACA7070600B
:100D7000FFF73CFEC0F80090EBE7391E02DAC8F13D
:100D8000000200E0424600DA794206A8FFF7E0FEE2
:100D900006AB93E8070003AB83E8070044F23E008C
:100DA0005BEA04010090584604D144F21E012C462F
:100DB0005D460091210C0904014306D100992404E9
:100DC00044EA15442D041039009104F07F41014399
:100DD00006D10099240244EA15642D0208390091D5
:100DE00004F07041014306D10099240144EA1574CE
:100DF0002D01091F009104F04041014306D10099E3
:100E0000A40044EA9574AD00891E009104F00041ED
:100E1000084304D100986D196441401E0090424679
:100E20006846002FCDE9014503A902DD00F0F1FE7F
:100E300001E000F0C6FEBAF1000F04460D4601D0F5
:100E400084F0004440F2FF7724F00040284303D0B0
:100E5000C4F30A50B84212D1FFF7C8FDC0F80090A1
:100E6000C4F30A50B8420AD1AE487844D0E9001021
:100E7000C6E9001004F000410843706069E7C6E964
:100E8000005466E72DE9FF4F1F464FF0000A4FF070
:100E9000FF38454691B0D7E90146CDF83CA0FFF7B1
:100EA000A1FDC0680168405C1090B96912986D1C82
:100EB0008847396A814688470028F6D1B9F1FF3F53
:100EC0000AD0002E24F4D06411DDB9F12B0F08D024
:100ED000B9F12D0F0BD102E0404615B03AE744F4CA
:100EE0008064B96912986D1C8847761E814660053A
:100EF00004A901D52D2000E02B20002E01F1010BCB
:100F00000DF130088DF810003FDDB9F1690F08D000
:100F1000B9F1490F05D0B9F16E0F02D0B9F14E0FFA
:100F20001CD13B4601A8009580E85002DDE9121271
:100F30006FF0020006F00BFDC11CCED10EE0B969C6
:100F400012986D1C884781461398761E44F40074ED
:100F500005600F98401C002E0F9016DDB9F1300F80
:100F6000EDD0B9F1780F02D0B9F1580F0DD10F982B
:100F700001280AD13B46CDE90054DDE91212001FD9
:100F8000029606F0E2FCC11CA7D1109989453ED11A
:100F900044F0800406E01399681CAAF1010A44F4A5
:100FA00000740860B9696D1C1298761E8847302855
:100FB0008146F0D02BE01099894505D1200603D455
:100FC000761E44F0800418E0484605F033F908B373
:100FD000761E0DF123018B4544F4007408D2A9F16B
:100FE00030000BF8010B200607D5AAF1010003E041
:100FF000200602D40AF101008246A00502D5139909
:10100000681C0860B96912986D1C88478146002EDB
:10101000D1DC53E0002E51DDB9F1650F02D0B9F1FA
:10102000450F4BD1A00549D5B9696D1C1298761EA4
:1010300024F440748847002E81460CDD2B2804D010
:10104000B9F12D0F07D144F48074B96912986D1C61
:101050008847761E8146E00501D52D2100E02B2131
:1010600008F8011BCDF8008021E0761E0DF1390152
:10107000884544F400740CD2A9F1300010F0FF0050
:1010800088F8000002D10099884509D908F10108C3
:1010900006E0E00501D5244801E042F20F708246E7
:1010A000B96912986D1C8847814613980560002E17
:1010B00004DD484605F0BEF80028D6D1F96912983B
:1010C0008847FF2053468BF8000088F80000002076
:1010D0000A900B9004AA0CA90AA8FFF7D5FDA00559
:1010E00002D46FF00100F8E614F0240F0AD0E007F4
:1010F00014D13868DDE90A12031D3B600068C0E9BD
:1011000000120BE00AA9684605F02EF8E00705D1A9
:101110003868009A011D3960006802602846DCE6E4
:10112000986F00008E6E0000F1D8FFFF10B50446E6
:10113000AFF300802046BDE81040FFF791B80000F3
:101140004FF0013C50F8042B51F8043B9A4221D156
:10115000A2EB0C03934313EACC1317D150F8042BE2
:1011600051F8043B9A4215D1A2EB0C03934313EAC6
:10117000CC130BD150F8042B51F8043B9A4209D1FF
:10118000A2EB0C03934313EACC13DBD04FF0000027
:10119000704700BFD01A01BAB1FA81F101F018010D
:1011A00022FA01F0CB40C1F12001DBB2C0B2C01A7B
:1011B0002CFA01F3D11A914311EAC311E6D1704719
:1011C00001491820ABBEFEE7260002002DE9FF4FC3
:1011D0001F464FF03C0987B04FF00042DDE9141084
:1011E00001F10108DDF858A002EA40500390002008
:1011F00005908346054604460490B969461E089842
:101200008847AAF1010A0290BAF1000F3BDD02986B
:101210002E2815D0102100F016FA00282EDB4FF0F2
:10122000010B0599014317D0B9F1000F0BDB4A46BA
:10123000C11700F0F5F905430C43A9F1040905E0D5
:10124000012004900BE008B145F001050120059054
:10125000049820B9361D02E0049800B1361FB96920
:10126000089808F101088847BBF1000FAAF1010AAC
:101270000290C9D00999C1F80080C5E7029870288A
:1012800008D0502806D0F96908988847BBF1000FAC
:1012900014D04FE0002002900120BBF1000F049019
:1012A00009D0B969089808F101088847AAF101092D
:1012B000B9F1000F07DCF969089888476FF0010061
:1012C0000BB0BDE8F08F2B2804D02D280CD14FF0A7
:1012D000FF300490B969089808F101088847A9F11E
:1012E0000109B9F1000FE6DD411CE4D00A2100F04C
:1012F000AAF90028DFDB029908F1010801EB81015E
:1013000000EB41000290B969089888470A2100F073
:101310009AF9099AA9F10109B9F1000FC2F8008000
:1013200001DD0028E7DAF9690898884704990298EE
:1013300000FB016655EA040004D004F040410900B6
:1013400002D006E0039898E0A40044EA9574AD004A
:10135000B61E04F00041080002D16D196441761EEA
:10136000159810F0240F03D04FF00B095C4803E0F0
:101370004FF028096FF07D008246564507DAAAEB48
:1013800006018944B9F1410F01DD4FF04109012007
:101390000021A9F1010200F043F9024628400B4662
:1013A0002140084301D0012100E00021501E02919C
:1013B00043F1FF3128402140084301D0012000E0E3
:1013C00000200299834651EA0B014FD000210846C4
:1013D0004FF00000039900F4400039B100EB8000A9
:1013E0004FF4400100EBD07001EA60008015012845
:1013F00002DD4FF0FF3000E013D0401C36D00298E1
:1014000060B3BBF1000F0CD14A460120002100F06F
:1014100007F928402140084301D0012000E00020C6
:10142000E0B101204A46002100F0FAF803464019D5
:101430000A4661412D1A8C4111D3B9F1400F09DDE3
:10144000159810F0240F02D0AAF1340603E0AAF197
:10145000170600E0761C00254FF0004406E05B1EF6
:1014600042F1FF3220EA030521EA0204CAF1010039
:10147000B04206DA1B49039808430190002000900F
:101480000EE0039AC4F3D321E80A0A43164940EA5E
:1014900044500A433146CDE90002684604F0C0FEDC
:1014A000159810F0240F0BD01598C00715D1386887
:1014B000DDE90012031D3B600068C0E900120CE08A
:1014C00002A8694604F050FE1598C00705D1386897
:1014D000029A011D3960006802604046F0E6000093
:1014E00002FCFFFF0000F07F0000F03F2DE9FF4FFE
:1014F00092461D4685B04FF00041DDE9124BDDE913
:1015000014727F1E01EA4B50414940F0FF4940EA06
:101510000108002122F020004928049102D04E2821
:1015200028D04CE03BA0012607C88DE80700A96938
:101530000698641C88477F1E014606D41DF80600E5
:1015400018B121F0200181420BD0E9690698884743
:10155000032E34D0082E32D06FF0010009B0BDE860
:10156000F08F761C032E01D0082EE0D1601CCAF843
:101570000000DCE7A9690698641C88477F1E2AD40E
:1015800020F02000412826D1A9690698641C8847CC
:101590007F1E20D420F020004E281CD1A969069877
:1015A000641C88477F1E48F4002849F48009CAF863
:1015B000004001D4282806D0E969069888475FEAE8
:1015C000CB7012D022E0A9690698641C88477F1E60
:1015D00001D4002803DAE96906988847BCE729287E
:1015E000F1D1641CCAF80040E9E71BF0240F07D0D2
:1015F00028680499031D2B600068C0E9001805E005
:101600002868021D2A600068C0F800902046A5E7FF
:101610000000F07F494E46494E49545900000000F1
:10162000B2F120030AD5C2F1200301FA02F120FA37
:1016300003F300FA02F041EA0301704700FA03F1F4
:101640004FF0000070473A2800D2303820F02002D6
:10165000412A01D3A2F13700884201D34FF0FF3075
:1016600070475FEA400C08BF91F0000F4FEA8C23EF
:101670004FEAC12243EA51514FEA1C5018BF00F50E
:10168000F0404FEA300018BF41F000415FEA6C5C67
:1016900000F02980BCF1FF3F08BF40F08040704758
:1016A000130C06BF12044FF0100C4FF0000C130E79
:1016B00004BF12020CF1080C130F04BF12010CF14D
:1016C000040C930F04BF92000CF1020CD30F04BF63
:1016D00052000CF1010C11464FF00002A0F11F0066
:1016E000A0EB0C00704711F0004F08BF704731F0BD
:1016F00000413FF4D5AF0B0C06BF09044FF0100CAE
:101700004FF0000C0B0E04BF09020CF1080C0B0F7C
:1017100004BF09010CF1040C8B0F04BF89000CF10C
:10172000020CCB0F04BF49000CF1010CCCF12003DB
:10173000A0EB0C0022FA03F302FA0CF241EA0301D7
:1017400000F10100704720F07F4C80EA030023F095
:101750007F47ACEB070303F57C5300F0004003F137
:10176000FF032DE980494FEA154B09B44FEA1443B2
:1017700025EA0B4E24EA03480FF2042606EB132752
:1017800049083E785FEA320203FB0667C7F50007A7
:1017900007FB06F64FEA54374FEAD64606F1020633
:1017A00007FB066CCCF1005C4FEA1C472CEA074CA7
:1017B00007FB06F40CFB06F504EB15464FEA9616FC
:1017C00034BF00204FF000404FEAD13706FB07FC42
:1017D0004FEA1C4C0CFB0BF7D21B03FB0CF761EB25
:1017E00007010CFB0EF7B0EB074072EB17420CFB46
:1017F00008F734BFA2EB0742B2EB074261EB174197
:101800004FEA0C444FEA910706FB07FC4FEA1C4CD9
:101810000CFB0BF7B0EBC74072EB573203FB0CF736
:1018200034BFA2EBC742B2EBC74261EB57310CFBAE
:101830000EF7B0EBC70072EB57720CFB08F734BF22
:10184000A2EBC702B2EBC70261EB5771039F4FEAED
:10185000816141EA921104EBCC044FEAD1374FEA9F
:10186000826206FB07FC42EA90124FEA80604FEA70
:101870001C4C0CFB0BF7D21B03FB0CF761EB0701B5
:101880000CFB0EF7B0EB074072EB17420CFB08F7AE
:1018900034BFA2EB0742B2EB074261EB17414FEABC
:1018A0008C554FEA910704EB9C2406FB07FC4FEA9A
:1018B0001C4C0CFB0BF7B0EBC74072EB573203FB31
:1018C0000CF734BFA2EBC742B2EBC74261EB573112
:1018D0000CFB0EF7B0EBC70072EB57720CFB08F76E
:1018E00034BFA2EBC702B2EBC70261EB577115EB35
:1018F0004C254FEA816141EA92114FEA82624FEA38
:10190000D13742EA901206FB07FC44F100044FEA8B
:1019100080604FEA1C4C0CFB0BF7D21B03FB0CF74F
:1019200061EB07010CFB0EF7B0EB074072EB1742BF
:101930000CFB08F734BFA2EB0742B2EB074261EBA6
:10194000174115EB1C154FEA813141EA92414FEAEC
:10195000823242EA90424FEA80304FEA0C7644F1FC
:10196000000448EA03434EEA0B484FF0000EB2EB86
:10197000080C71EB030724BF624639464EEB0E0E8E
:101980004FF0000B0018524149414BEB0B0BB2EBEF
:10199000080C71EB03077BF1000B24BF624639464C
:1019A0004EEB0E0E4FF0000B0018524149414BEB2D
:1019B0000B0BB2EB080C71EB03077BF1000B24BFA0
:1019C000624639464EEB0E0E51EA020718BF46F04A
:1019D000010616EB0E7655F1000254F1000103D515
:1019E000BDE88901BDE80088BDE88901BDE800487F
:1019F000B619524141EB0101A3F101037047808008
:101A00007F7E7D7C7B7A7978777676757473727158
:101A100071706F6E6E6D6C6C6B6A6A696868676610
:101A200066656464636362616160605F5F5E5E5DA2
:101A30005D5C5C5B5B5A5A59595858575756565516
:101A400055555454535352525251515050504F4F78
:101A50004F4E4E4D4D4D4C4C4C4B4B4B4A4A4A49C8
:101A6000494948484847474747464646454545440B
:101A700044444443434343424242424141410000C3
:101A800046EA0646A3F570534FEA164646EA425622
:101A90004FEAD22242EA415210B54FEAD121A3F1D6
:101AA000010300F017F820F0004000F1010C00F0F5
:101AB000004701EB00501146BCF5006F40EA0700FB
:101AC00000D210BD02484FF0000140EA070010BDEF
:101AD0000000F07F002B26D4770021D01CB54FEA00
:101AE000370703B44FF010004FF010014FF0000023
:101AF0000FBCBDE810400BF1010BBBF1010F08BF9B
:101B00005FEA170722BF12F1010211F101014FF044
:101B1000004143F1000300F0004043EA0000704739
:101B2000F9D35708DAE746EA064613F1400F4FEAC1
:101B300016461FDD13F1200FDFBF16430A460021B2
:101B400020335B42C8D0C3F1200746EA064602FABA
:101B500007F74FEA164646EA0706C3F1200722FABE
:101B600003F201FA07F721FA03F14FF0000342EA0A
:101B70000702B1E746EA020646EA06464FEA16467B
:101B800046EA0106BCBF46EA0646360C4FF00003A3
:101B90004FF000024FF000019EE72DE9C048934648
:101BA00030B491E8380007C831EA400C48BF34EA45
:101BB000430C03D5FFF7C7FDFFF78CFFF0BCBDE872
:101BC00000882DE9C048934630B491E8380007C832
:101BD00031EA400C48BF34EA430C03D5FFF7B3FDAC
:101BE000FFF74EFFF0BCBDE800882DE9C0489346E2
:101BF00030B491E8380007C810F0804F08BF13F0E8
:101C0000804F03D100F019F8FFF764FFF0BCBDE886
:101C100000882DE9C048934630B491E8380007C8E1
:101C200010F0804F08BF13F0804F03D100F005F88B
:101C3000FFF726FFF0BCBDE8008820F07F4780EA70
:101C4000030023F07F4C07EB0C03A3F57C5300F05B
:101C50000040A3F1FE0392F0000F00F0B38095F076
:101C6000000F00F077802DE901494FEA11404FEA5B
:101C7000144621EA004800FB06FC24EA064708FB5C
:101C800006F607FB08F800FB07F718EB06484CEBD5
:101C9000164C4FEA124B18EB07484FEA15464CEB2F
:101CA000174022EA0B4E0BFB06FC25EA06470EFB0B
:101CB00006F607FB0EFE0BFB07F71EEB064E4CEB82
:101CC000164C4FF000061EEB074E4CEB174B18EB73
:101CD0000B0840F1000018EB0E0B58EB000840F128
:101CE00000008F1A4FF000013CBFC943661B14BFB0
:101CF000B5EB040C00213CBFC943F61B4FEA174467
:101D00004EEA8E0E27EA04454FEA1C4704FB0762A1
:101D10002CEA074C05FB07F70CFB05F604FB0CFC53
:101D200016EB074642EB174216EB0C4642EB1C4201
:101D30001BEB060658EB0202414146EA9E0601D51E
:101D4000BDE80189B619524141EB0101A3F101033C
:101D5000BDE801894FEA14454FEA114724EA0546D8
:101D600021EA074C05FB07F406FB07F70CFB06F11D
:101D700005FB0CFC11EB074144EB17444FEA1247FB
:101D800011EB0C4144EB1C4422EA074C05FB07F223
:101D900006FB07F70CFB06F605FB0CFC16EB0746EB
:101DA00042EB174216EB0C4642EB1C456A1854F105
:101DB000000148BF7047B619524141EB0101A3F140
:101DC0000103704795F0000F37D04FEA11424FEAF8
:101DD000144721EA024624EA074C02FB07F106FBFE
:101DE00007F70CFB06F402FB0CFC14EB074441EB79
:101DF00017414FEA154714EB0C4441EB1C4125EA0F
:101E0000074C02FB07F506FB07F70CFB06F602FB87
:101E10000CFC16EB074645EB174516EB0C4645EB5D
:101E20001C42121951F1000148BF7047B6195241C6
:101E300041EB0101A3F1010370474FEA14454FEA5A
:101E4000114724EA054621EA074C05FB07F106FB8A
:101E500007F70CFB06F24FF0000605FB0CFC12EB3B
:101E6000074241EB174112EB0C4251EB1C4148BFBA
:101E70007047921841EB0101A3F10103704721B1B2
:101E8000826842F00102826003E0826822F001026F
:101E9000826070470021084A1168084A1140D0E961
:101EA00000231A4383681A43C3681A431143044A40
:101EB000C2F804137047000004230140E030FCFF27
:101EC0000020014030B50246002000235068104C2D
:101ED00020400D790C6844EA052420435060906846
:101EE0000C4C2040D1E903542C438D682C434D7990
:101EF00044EA450420439060D06A20F470000C7DD1
:101F0000641EE4B2234340EA0350D06230BD0000B7
:101F1000FFFEFFFCFDF7FFC000B58DB001210420DE
:101F200001F058FA0121080201F084FA30200B90E8
:101F300003208DF8300000208DF833000BA91648DF
:101F400001F084F80121080201F084FA00214FF425
:101F5000807001F07FFA002007900A9009904FF4FA
:101F60008030089007A8FFF795FF002001908DF8BA
:101F700008008DF8090003900490059001208DF869
:101F8000180001A90548FFF79DFF01210348FFF74D
:101F900076FF0DB000BD00000008024000200140A7
:101FA0001CB50121102001F015FA802000900120BD
:101FB0008DF8040000208DF8060003208DF8050040
:101FC00002208DF807006946034801F03FF88021A0
:101FD000014801F0AFF81CBD0010024000BFFEE751
:101FE00010B53F4803783F4A3F49404800F0AEFCF7
:101FF0003D480068302803D13A49087804F0FCFCD9
:102000003948006840F28721884215D13548006878
:1020100045F6500188420FD1324890ED010AB8EEE2
:10202000C00ADFED330A20EE200ADFED320A80EE2F
:10203000201A314880ED061A2B480068B0F5227F3F
:102040000DD12848006845F65601884207D1254839
:1020500090ED010AB8EEC00A274880ED680A2248D0
:10206000006840F2862188420DD11E48006845F67E
:102070005001884207D11B4890ED010AB8EEC00A12
:102080001D4880ED0B0A1D49184800F0B1F81B49A6
:10209000491C164800F0ACF81849C91C134800F058
:1020A000A7F81749114800F0A3F816490F4800F0A7
:1020B0009FF815490D4800F09BF8134908310B486B
:1020C00000F096F81149094800F092F810490748C5
:1020D00000F08EF80E490831044800F089F810BD70
:1020E000B0000020A8000020B400002000640040E0
:1020F0000000B44200008045400100200100F010C3
:102100007000F030030000120800003203000014D9
:10211000080000341CB52C4803786A462B492C482B
:1021200000F014FC2948006840F2822188420BD15B
:1021300045F656010098884206D19DED010AB8EE99
:10214000C00A244880ED180A2048006840F2812126
:1021500088420BD145F656010098884206D19DED84
:10216000010AB8EEC00A1B4880ED1B0A1A4918483C
:1021700000F03EF81849491C154800F039F8164996
:10218000C91C134800F034F81449114800F030F825
:1021900013490F4800F02CF812490D4800F028F8B8
:1021A000104908310A4800F023F80F49084800F0A8
:1021B0001FF80E49064800F01BF80C490831044886
:1021C00000F016F81CBD0000BC000020B800002084
:1021D00000680040400100200100F0107000F03065
:1021E000030000120800003203000014080000344D
:1021F00000220C4B994202D10023836111E0C1F30C
:10220000130201F000730BB1C2600AE001F08063B9
:102210000BB1026105E001F000630BB1826000E0E8
:10222000426070477000F0302DE9F04F8BB00646E9
:102230000F4614461D46DDF850804FF00009CA468F
:10224000CB46B5F5807F43D012DC102D34D008DCAE
:10225000012D25D0022D26D0042D27D0082D4FD1B9
:1022600027E0202D2BD0402D2CD0802D48D12CE0E4
:10227000B5F5805F38D009DCB5F5007F2BD0B5F51A
:10228000806F2BD0B5F5006F3AD12AE0B5F5005F2D
:102290002DD0B5F5804F2DD0B5F5004F30D12CE0C5
:1022A0004FF000092DE04FF001092AE04FF002093C
:1022B00027E04FF0030924E04FF0040921E04FF03C
:1022C00005091EE04FF006091BE04FF0070918E072
:1022D0004FF0080915E04FF0090912E04FF00A0924
:1022E0000FE04FF00B090CE04FF00C0909E04FF044
:1022F0000D0906E04FF00E0903E04FF00F0900E072
:1023000000BF00BFB8F5807F4BD01ADCB8F1100FCA
:102310003BD00CDCB8F1010F2BD0B8F1020F2BD061
:10232000B8F1040F2BD0B8F1080F52D12AE0B8F160
:10233000200F2DD0B8F1400F2DD0B8F1800F48D12B
:102340002CE0B8F5805F38D009DCB8F5007F2BD0E1
:10235000B8F5806F2BD0B8F5006F3AD12AE0B8F508
:10236000005F2DD0B8F5804F2DD0B8F5004F30D19B
:102370002CE04FF0000A2DE04FF0010A2AE04FF068
:10238000020A27E04FF0030A24E04FF0040A21E09C
:102390004FF0050A1EE04FF0060A1BE04FF0070A57
:1023A00018E04FF0080A15E04FF0090A12E04FF06C
:1023B0000A0A0FE04FF00B0A0CE04FF00C0A09E09C
:1023C0004FF00D0A06E04FF00E0A03E04FF00F0A3F
:1023D00000E000BF00BF7F48304418B1B0F5806F07
:1023E0001AD10CE04FF0090B00208DF812001420D8
:1023F0008DF804000121480600F0FCFF0DE04FF0CD
:10240000090B0E208DF8120040208DF804000121E8
:10241000000500F0EFFF00E000BF00BFC4F30900BB
:1024200078BBA012A0F580108038092834D2DFE8EC
:1024300000F0050A0F14191E23292E000121084659
:1024400000F0C8FF29E00121022000F0C3FF24E0D2
:102450000121042000F0BEFF1FE00121082000F050
:10246000B9FF1AE00121102000F0B4FF15E00121AE
:10247000202000F0AFFF10E00121402000F0AAFF73
:102480000BE009E00121802000F0A4FF05E001211C
:10249000080200F09FFF00E000BF00BF5A46494617
:1024A000204600F01BFE5A465146204600F016FE1C
:1024B00045EA0800099002208DF828008DF82900CF
:1024C00000208DF82A0001208DF82B0009A9204654
:1024D00000F0BCFD304600F07FF800208DF81E00B3
:1024E0008DF81F008DF820008DF821008DF8220056
:1024F0008DF823008DF81A008DF81B000B208DF845
:102500001C0007208DF81D007D2F22D008DC0A2F2B
:102510000FD0142F11D0322F13D0642F29D114E0F3
:10252000FA2F1AD0B7F5FA7F1BD0B7F57A7F20D1F2
:102530001BE0C820ADF818001CE06420ADF81800BE
:1025400018E02820ADF8180014E01420ADF81800A9
:1025500010E01020ADF818000CE00820ADF81800CD
:1025600008E00420ADF8180004E00220ADF81800DF
:1025700000E000BF00BF06A9304600F0D6F80020FA
:102580008DF8130001208DF814000020ADF808002C
:10259000ADF80A00ADF80C00ADF80E00ADF8100073
:1025A00001208DF8150002A800F032F802208DF805
:1025B000050003208DF8060001208DF8070001A812
:1025C00000F018FE01220221304600F0A5F80BB001
:1025D000BDE8F08F009CFFBF10B504460B48844255
:1025E00009D10121480600F015FF00214FF00070CD
:1025F00000F010FF08E00121880600F00BFF002129
:102600004FF0806000F006FF10BD00000064004045
:1026100010B50021837A012202FA03F13D4A1268C3
:1026200042F001023B4B1A603A4A1C3212688A435C
:10263000384B1C331A60027BCAB9364A0C32126816
:102640008A43344B0C331A604288C38842EA0343FE
:10265000304A4032847A42F834300288838842EA31
:1026600003432C4A4032847A02EBC4025360027B5B
:10267000012A19D1274A0C3212680A43254B0C3320
:102680001A604288038842EA0343224A4032847A2D
:1026900042F83430C288838842EA03431D4A4032FC
:1026A000847A02EBC4025360C27A3AB9194A121D05
:1026B00012688A43174B1B1D1A6006E0154A121D4B
:1026C00012680A43134B1B1D1A60028932B9114A62
:1026D000143212688A430F4B14331A600289012A9C
:1026E00006D10C4A143212680A430A4B14331A609A
:1026F000427B012A06D1074A1C3212680A43054B65
:102700001C331A60034A126822F00102014B1A605E
:1027100010BD0000006600401AB143690B434361DD
:1027200002E043698B434361704730B502460020A5
:102730000023146824F002041460146844F00104B7
:10274000146000E05B1C546804F001041CB94FF6EF
:10275000FF74A342F6D1546804F001040CB90020C0
:102760006CE08C79012C04D1146844F0800414606E
:1027700003E0146824F080041460CC79012C04D1A7
:10278000146844F04004146003E0146824F040042A
:1027900014600C7A012C04D1146844F020041460F5
:1027A00003E0146824F0200414604C7A012C04D156
:1027B000146844F01004146003E0146824F010045A
:1027C00014608C7A012C04D1146844F0080414605D
:1027D00003E0146824F008041460CC7A012C04D1BE
:1027E000146844F00404146003E0146824F0040442
:1027F00014608C78A407CD7844EA05640D7944EA26
:1028000005444D7944EA05540D886D1E2C43D4616E
:10281000146824F001041460002300E05B1C546879
:1028200004F001041CB14FF6FF74A342F6D15468C2
:1028300004F001040CB1002000E0012030BD02468C
:10284000002019B9D36803F0030006E0012903D181
:10285000136903F0030000E00020704710B500F595
:10286000D87303EB01131B6803F004031372137A8C
:1028700053B900F5D87303EB01131B6840F2FF74E2
:1028800004EA5353136009E000F5D87303EB011316
:102890001B686FF0604404EAD303536000F5D873FB
:1028A00003EB01131B6803F00203537200F5D873A6
:1028B00003EB01135B6803F00F03937200F5D87309
:1028C00003EB01135B681B0AD37400F5D87303EBA9
:1028D00001139B68D37200F5D87303EB01139B6857
:1028E0001C0A147300F5D87303EB01139B681C0CCE
:1028F000547300F5D87303EB01139B681B0E93739D
:1029000000F5D87303EB0113DB68D37300F5D873BC
:1029100003EB0113DB681C0A147400F5D87303EB96
:102920000113DB681C0C547400F5D87303EB01131E
:10293000DB681B0E937421B9C36843F02003C360A6
:1029400003E0036943F02003036110BD2DE9F0416A
:1029500086B080460D4616461F460024002140469C
:10296000FFF76DFF18B9002006B0BDE8F08101AA9D
:1029700000214046FFF772FF002405E00DF10F0033
:10298000005D3055601CC4B2BC42F7DB0198286082
:102990000120E9E710B502460020936803F0806348
:1029A000B3F1806F00D110E0936803F00063B3F1DE
:1029B000006F01D1012008E0936803F08053B3F168
:1029C000805F01D1022000E00420042874D002F5C9
:1029D000C07303EB00131B6803F0010402F5C0731E
:1029E00003EB00131C600B7A7BB94B7A0C8843EA2B
:1029F000445302F5C07404EB00142468234302F529
:102A0000C07404EB0014236010E00B7A4C6843EAB6
:102A1000C4034C7A234302F5C07404EB0014246809
:102A2000234302F5C07404EB001423608B7A03F097
:102A30000F038B7202F5C07303EB00135B6823F086
:102A40000F0402F5C07303EB00135C6002F5C07362
:102A500003EB00135B688C7A234302F5C07404EB2C
:102A6000001463608B7B1C064B7B44EA03440B7BA6
:102A700044EA0323CC7A234302F5C07404EB001428
:102A8000A3608B7C1C064B7C44EA03440B7C44EA29
:102A90000323CC7B234302F5C07404EB0014E360F2
:102AA00002F5C07303EB00131B6843F0010402F549
:102AB000C07303EB00131C6010BD000010B502468C
:102AC000002321B1012907D002290FD109E0906824
:102AD0001D4C00EA04030BE090681C4C00EA040360
:102AE00006E090681A4C00EA040301E0002300BFEE
:102AF00000BF184C181BA34216D007DC83B16FF03F
:102B00008060184470B1022818D111E0B0F5007F40
:102B100010D0114C204448B1B0F5003F0ED10BE06D
:102B200002230DE000230BE0002309E0002307E06F
:102B3000012305E0012303E0012301E0002300BF9E
:102B400000BFD8B210BD000003000004000300085D
:102B500000000310000100080001FFF72DE9F04319
:102B600085B081460D4690461E460024009501958D
:102B700000208DF808008DF809008DF80A6000BF6C
:102B800006E018F804100DF10B000155601C84B22A
:102B9000B442F6DB69464846FFF7FCFE07460024D0
:102BA00000BF39464846FFF789FF0128F9D105B033
:102BB000BDE8F08310B588B004460121082000F07C
:102BC00009FC0121480400F015FC072205212448D6
:102BD00000F084FA07220621214800F07FFA6020E5
:102BE000069002208DF81C008DF81D0000208DF845
:102BF0001E0001208DF81F0006A9194800F026FAD2
:102C000002940020ADF80C00ADF80E00ADF81000F5
:102C1000ADF814000C20ADF8120002A9114801F023
:102C20001BFC40210F4801F033FB26208DF80400E7
:102C300000208DF8050002208DF8060001208DF897
:102C4000070001A800F0D6FA012240F225510548FC
:102C500001F0DDFB0121034801F032FB08B010BD9B
:102C6000000C02400044004010B50749074800F03E
:102C700005F938B10021054800F03EF80249034843
:102C800000F020F810BD000000800028B86002406D
:102C90000246094B9A4201D2084801E00648103822
:102CA00001F000531BB1064B0B40C36002E0044B24
:102CB0000B408360704700001064024000600240D7
:102CC0007D0F7D0F0246094B9A4201D2084801E070
:102CD0000648103801F000531BB1064B0B40C3608F
:102CE00002E0044B0B408360704700001064024018
:102CF000006002407D0F7D0F21B1026842F00102A9
:102D0000026003E0026822F00102026070470000E6
:102D1000016821F0010101600021016041608160D2
:102D2000C1600161212141614A49884204D13D21AC
:102D3000484A103A91608CE046491831884205D1E2
:102D40004FF47461434A103A916082E04149303156
:102D5000884205D14FF474113E4A103A916078E0F0
:102D60003C494831884205D14FF07461394A103AE4
:102D700091606EE037496031884204D13649354A66
:102D8000103AD16065E033497831884204D1334943
:102D9000304A103AD1605CE02E499031884204D12B
:102DA0002F492C4A103AD16053E02A49A831884271
:102DB00005D14FF03D51274A103AD16049E02949E9
:102DC000884204D13D21274A083A116041E0254953
:102DD0001831884205D14FF47461224A083A1160D3
:102DE00037E020493031884205D14FF474111D4A33
:102DF000083A11602DE01B494831884205D14FF057
:102E00007461184A083A116023E01649603188421B
:102E100004D11149134A121F11601AE01149783187
:102E2000884204D10D490F4A121F116011E00D496B
:102E30009031884204D10A490A4A121F116008E001
:102E40000849A831884204D14FF03D51054A121F6C
:102E500011607047106002403D000020400F0020CC
:102E600000003D2010640240014600200A6802F084
:102E700001020AB1012000E00020704770B502464F
:102E8000002000240025124EB24201D2114B01E075
:102E90000F4B103B104E0E4036B11E2606EAD124D1
:102EA000166806EA040502E0566906F0800501F09E
:102EB00000560EB15C6800E01C68084E344004EA1D
:102EC000010616B10DB1012000E0002070BD000028
:102ED00010640240006002403C0F3C0F7D0F7D0FEC
:102EE00010B501F080034BB122B1436943F0800378
:102EF000436103E0436923F08003436180290BD0E1
:102F00002AB1036801F01E042343036004E0036850
:102F100001F01E04A343036010BD000010B50022A1
:102F20000268134B1A40CC680B6823434C69234357
:102F30008C692343CC6923430C6A23434C6A2343A3
:102F40008C6A23434C6B23438C6B23431A430260EC
:102F5000426922F00702D1E90B3423431A4342614C
:102F60000B6943604B6883608B68C36010BD0000D1
:102F70003F801CF041607047704700B5034604E095
:102F80004FF47A7000F004F85B1E002BF8D100BDFE
:102F9000A82141434FF0E02251610521116100BF9A
:102FA0004FF0E021096901F480310029F8D00421B3
:102FB0004FF0E0221161704710B52DED0C8BB0EE93
:102FC000408AF0EE608AB0EE419AF0EE619A38EEF7
:102FD000E90A10EE101A084604F0D8FB41EC1D0B6C
:102FE0009FED181BB0EE4D0AF0EE6D0A01F0ACFD3E
:102FF000B0EE40BAF0EE60BA38EE490A10EE101AA0
:10300000084604F0C3FB41EC1D0B9FED0E1BB0EE18
:103010004D0AF0EE6D0A01F097FDB0EE40CAF0EEF9
:1030200060CA53EC1B2B51EC1C0B03F0D3FD41EC9D
:103030001A0BB0EE4A0AF0EE6A0A02F011FCBDEC7F
:103040000C8B10BD0000000000000040F0B50A46E7
:1030500000210023002400BF3DE0012505FA01F313
:10306000156805EA03049C4234D105684F00032625
:10307000BE40B543056015794E00B540066835433E
:1030800005601579012D02D01579022D16D18568BC
:103090004F000326BE40B543856055794E00B540CC
:1030A000866835438560456801268E40B543456096
:1030B000456896798E40B6B235434560C5684F0085
:1030C0000326BE40B543C560D5794E00B540C668FD
:1030D0003543C560491C1029BFD3F0BDF0B50023AE
:1030E00000244D07ED0E02FA05F3CE1000F1200585
:1030F00055F826504E07F70E0F26BE40B543CF10A9
:1031000000F1200646F82750CE1000F1200555F8B2
:10311000265045EA0304CE1000F1200545F826406C
:10312000F0BD0246002013690B400BB1012000E006
:1031300000207047418370470183704700BFFEE75E
:1031400008B5002003465322632100904FF08040D1
:1031500000F052FC0120002340F2473240F2E731F8
:1031600000901D4800F048FC0120002340F2473247
:1031700063210090194800F03FFC4FF400704310A9
:10318000174A4FF4FA7100901648FFF74DF84020A7
:103190002023134A4FF4FA7100901348FFF744F8C4
:1031A000FEF7BAFEFEF7FCFE00F06AF800F048FDFC
:1031B00000F0DAF84FF4E13000F076FA4FF4E13045
:1031C000FFF7F8FC4FF4E13000F072F84FF46120A3
:1031D00000F068FD08BD0000000400400008004049
:1031E00000040240006400400068004000BFFEE7A9
:1031F00000BFFEE770B5002100230F22C4781CB386
:10320000174C246804F4E064C4F5E064C4F30721B7
:10321000C1F10404E3B20A4144789C40E1B28478ED
:10322000144021430C07210E0E4C0578615504789B
:1032300004F01F050124AC4005786D11AD0005F1C7
:10324000E025C5F8004109E0047804F01F050124D9
:10325000AC40054D0678761145F8264070BD00005B
:103260000CED00E000E400E080E100E002490143F1
:10327000024A1160704700000000FA050CED00E002
:103280001CB50121102000F0A5F84FF480700090CB
:1032900000208DF8040003208DF8050001208DF832
:1032A000070069460148FFF7D1FE1CBD001002402F
:1032B00010B588B004460121082000F08BF80121E8
:1032C000880400F097F8072208212548FFF706FF39
:1032D000072209212248FFF701FF4FF440700690B2
:1032E00002208DF81C008DF81D0000208DF81E00B6
:1032F00001208DF81F0006A91948FFF7A7FE4FF41B
:10330000E13002900020ADF80C00ADF80E00ADF8F1
:103310001000ADF814000C20ADF8120002A91148FD
:1033200001F09AF801210F4800F0CAFF40210D4832
:1033300000F0AEFF012240F225510A4801F067F883
:1033400027208DF8040000208DF8050001208DF85D
:1033500006008DF8070001A8FFF74CFF08B010BD6C
:10336000000C0240004800401CB50121102000F074
:1033700031F85020009001208DF8040000208DF8D5
:10338000060003208DF8050002208DF8070069462D
:103390000348FFF75BFE50210148FFF7CDFE1CBD3F
:1033A00000100240F0EE400A9FED071AB0EE410A0D
:1033B0009FED061A20EE811ADFED051A81EE212A13
:1033C000B0EE420A7047000000000000DD7EBC4302
:1033D0000000804529B1064A12680243044B1A6076
:1033E00004E0034A12688243014B1A6070470000F0
:1033F0003038024029B1064A12680243044B1A6071
:1034000004E0034A12688243014B1A6070470000CF
:103410004038024029B1064A12680243044B1A6040
:1034200004E0034A12688243014B1A6070470000AF
:103430002038024029B1064A12680243044B1A6040
:1034400004E0034A12688243014B1A60704700008F
:103450004438024029B1064A12680243044B1A60FC
:1034600004E0034A12688243014B1A60704700006F
:1034700024380240F0B50021002200240225002655
:103480000223324F3F6807F00C0121B1042905D017
:10349000082937D105E02E4F076036E02D4F076031
:1034A00033E02A4F3F1F3F68C7F38056274F3F1F27
:1034B0003F6807F03F036EB1264FB7FBF3F7DFF825
:1034C0008CC0ACF1040CDCF800C0CCF3881C07FB0A
:1034D0000CF40CE01E4FB7FBF3F7DFF870C0ACF153
:1034E000040CDCF800C0CCF3881C07FB0CF4174F6D
:1034F0003F1F3F68C7F301477F1C7D00B4FBF5F712
:10350000076002E0124F076000BF00BF0F4F3F6827
:1035100007F0F0010909104F7A5C0768D74047604F
:103520000A4F3F6807F4E051890A0B4F7A5C4768FD
:10353000D7408760054F3F6807F46041490B064F4D
:103540007A5C4768D740C760F0BD00000838024089
:103550000024F40000127A003001002070470000BF
:103560000CB50020019000903448006840F4803091
:103570003249086000BF3148006800F40030009014
:103580000198401C0190009818B90198B0F5A06FFF
:10359000F1D12A48006800F4003010B101200090F9
:1035A00001E0002000900098012846D123484030D7
:1035B000006840F080502149403108602048006890
:1035C00040F480401E4908601C48083000681B49D0
:1035D000083108600846006840F40040086008466A
:1035E000006840F4A05008601648091F0860081FD2
:1035F000006840F08070091F086000BF0F48006835
:1036000000F000700028F9D040F205600E49086013
:103610000A480830006820F00300084908310860B3
:103620000846006840F00200086000BF0348083008
:10363000006800F00C000828F8D10CBD00380240EA
:103640000070004008544007003C024000B52DEDDA
:10365000028B81B0B0EE408AB0EE480A03F0F0F978
:10366000009041210F4801F025F89DF800100D4809
:1036700001F020F89DF801100A4801F01BF89DF8B0
:103680000210084801F016F89DF80310054801F0F3
:1036900011F84A21034801F00DF801B0BDEC028B8E
:1036A00000BD00000010014010B588B004460121A3
:1036B0000846FFF78FFE01211020FFF7BBFE07220F
:1036C00009212548FFF70AFD07220A212248FFF7B2
:1036D00005FD4FF4C060069002208DF81C008DF8A7
:1036E0001D0000208DF81E0001208DF81F0006A986
:1036F0001948FFF7ABFC02940020ADF80C00ADF8C0
:103700000E00ADF81000ADF814000C20ADF812005A
:1037100002A9124800F0A0FE4021104800F0B8FDB8
:1037200025208DF8040000208DF8050002208DF87A
:10373000060001208DF8070001A8FFF75BFD0122BC
:1037400040F22551054800F062FE0121034800F0D7
:10375000B7FD08B010BD000000000240001001409D
:1037600010B51548006840F470001349086013480C
:10377000006840F001001149086000200F4908313D
:1037800008600E4800680E4908400C4908600D4862
:10379000091D0860081F006820F48020091F0860C8
:1037A000002006490C310860FFF7DAFE4FF0006098
:1037B00001498039086010BD88ED00E00038024002
:1037C000FFFFF6FE1030002410B50121044800F080
:1037D000F8F8012803D10121014800F0E3F810BDF9
:1037E0000000014010B50121880700F0EAF8012827
:1037F0001AD10121800700F0D5F80C480088401C40
:103800000A4908800846008800EE100AB8EE400A0F
:10381000DFED070AB4EEE00AF1EE10FA04DB002057
:10382000088001200349087010BD0000E800002056
:103830000000C842EA00002010B50121364800F01F
:10384000C0F8012866D10121334800F0ABF83348B5
:10385000D0F8BC01401C3149C1F8BC0130480068B7
:10386000401C2F490860084600684FF6FF7190FB26
:10387000F1F201FB12002A4908602A49086800EBAE
:10388000D0714910A0EB4101A9B9244890ED1F0A5D
:10389000254880ED000A214890ED200A234880ED5C
:1038A000000A214890ED000A03F0BEF81F4890ED91
:1038B000000A03F0BFF81B480068401C1949086063
:1038C00008460068B0F5C87F01DD00200860134895
:1038D000D0F8B801012804D115480068401C1449EB
:1038E000086013480068B0F57A5F13DD00201049C6
:1038F00008600A4908700846007840F01000087017
:103900000846007840F0400008700846007840F013
:103910000800087010BD00000004004040010020B5
:10392000EC000020FC000020F0000020F40000204B
:10393000F800002010B501210A4800F042F80128E3
:103940000FD10948D0F8CC01401C0749C1F8CC017F
:103950000121044800F026F802F0B4FF0249C1F842
:10396000A80110BD000800404001002010B5012151
:10397000044800F026F8012803D10121014800F095
:1039800011F810BD000C004010B50121044800F0F2
:1039900018F8012803D10121014800F003F810BDF7
:1039A00000040140CA430282704721B1028842F0FC
:1039B0000102028004E002884FF6FE731A40028082
:1039C000704730B50246002000230024158A05EA1E
:1039D0000103958905EA010413B10CB1012000E04F
:1039E000002030BD1AB183890B43838102E08389B3
:1039F0008B438381704700002DE9FF4104460D464B
:103A000016461F46DDF828806949601A8C4270D03E
:103A10001ADC6849A4EB01008C426CD00ADCB4F1DA
:103A2000804F4ED064482044002852D0B0F5806FBB
:103A300071D156E0B0F5806F65D0B0F5006F6CD0F5
:103A4000B0F5406FF4D170E0B0F5923F21D009DCC1
:103A5000B0F5806F7AD0B0F5644F0AD0B0F5684FFA
:103A60007CD10EE0B0F5943F1BD0B0F5963F75D1F8
:103A70001FE001210846FFF7DDFC19208DF800004A
:103A80006DE001210220FFF7D5FC2C208DF800000D
:103A900065E001210804FFF7CDFC18208DF8000037
:103AA0005DE001211920FFF7C5FC2C208DF80000F6
:103AB00055E001218804FFF7BDFC1A208DF80000B5
:103AC0004DE001210846FFF795FC1C208DF8000011
:103AD00045E001210220FFF78DFC1D208DF800003C
:103AE0003DE001210420FFF785FC1E208DF8000039
:103AF00035E023E0FFE701210820FFF77BFC3220BF
:103B00008DF800002BE001211020FFF773FC362018
:103B10008DF8000023E021E0FFE701212020FFF7DE
:103B200069FC37208DF8000019E001214020FFF7E3
:103B300061FC2B208DF8000011E007E001218020BE
:103B4000FFF758FC2C208DF8000008E00121080246
:103B5000FFF750FC2D208DF8000000E000BF00BFF3
:103B60000295ADF804600020ADF80C00ADF8060039
:103B700001A9204600F022F801212046FFF712FF9C
:103B8000012211462046FFF72DFFF8B28DF8010003
:103B900008F0FF008DF8020001208DF80300684650
:103BA000FFF728FB01212046FFF7FFFEBDE8FF815C
:103BB000001C0040000C004000FCFFBF00220288F7
:103BC000184B98420ED0184B98420BD0B0F1804F52
:103BD00008D0164B984205D0154B984202D0154B91
:103BE000984204D14FF68F731A404B881A43124BF8
:103BF000984207D0114B984204D04FF6FF431A4029
:103C00000B891A4302804B68C3620B880385054BFE
:103C1000984202D0044B984201D18B7A038601234B
:103C2000838270470000014000040140000400400E
:103C300000080040000C004000100040001400404C
:103C40001CB501210420FFF7C5FB01211020FFF75F
:103C5000C1FB0120009000208DF8040003208DF8A6
:103C6000050002208DF8070000208DF80600694647
:103C70000A48FFF7EBF90420009000208DF80400BB
:103C800003208DF8050002208DF8070000208DF834
:103C9000060069460248FFF7D9F91CBD000802403A
:103CA0000010024010B590B0044601214805FFF70E
:103CB00091FB204600F092F82248FFF729F800BF58
:103CC0002048FFF7D1F80028FAD14FF000600190AA
:103CD0001D4802901D48039040200490002005904C
:103CE00006904FF4806007900020089009900A9099
:103CF0004FF400300B9000200C9001200D9000201C
:103D00000E900F9001A90F48FFF708F901228021BA
:103D10000D48001F00F0E0FA012210210948FFF7CA
:103D2000DFF82F208DF8000002208DF801008DF8BB
:103D3000020001208DF803006846FFF75BFA10B01F
:103D400010BD0000B8600240045000401403002081
:103D500010B5002408211D4800F022FB48B140F2B4
:103D600025511A4800F09DFA194800F09EFCC4B293
:103D70002BE040F22551164800F01FFB012824D10A
:103D800040F22551124800F08CFA114800F08DFCE9
:103D9000C4B210481049096844540F480068401CD8
:103DA0000D4908600846006800280EDD08460068D6
:103DB000801E0849085C0D2807D107480068401E8E
:103DC000085C0A2801D100F04DFD10BD0010014033
:103DD00000500040640300208C00002010B588B023
:103DE000044601940020ADF80800ADF80A00ADF8D3
:103DF0000C00ADF810000C20ADF80E000121FFF70B
:103E0000E9FA01210805FFF7F5FA254800F06EFAF6
:103E100008220C212348FFF761F9082202212248D9
:103E2000FFF75CF900208DF81A0001208DF81B00C7
:103E300002208DF81800C002059002208DF81900AC
:103E400005A91848FFF702F902208DF81800042090
:103E5000059005A91448FFF7F9F801A9104800F0EA
:103E6000FBFA35208DF81C0001208DF81F00002082
:103E70008DF81D0002208DF81E004FF4A060FFF7A2
:103E8000F5F907A8FFF7B6F9012240F225510448D9
:103E900000F0BDFA0121024800F012FA08B010BD8E
:103EA0000050004000080240000C024010B50821FC
:103EB000374800F075FA50B140F22551344800F00F
:103EC000F0F9334800F0F1FB324908705FE040F24E
:103ED00025512F4800F071FA012858D140F22551A0
:103EE0002B4800F0DEF92A4800F0DFFB2949087072
:103EF0002948006820B1012810D0022842D124E0CE
:103F000024480078412805D123480068401C2249F4
:103F1000086002E000202049086037E01D48007872
:103F20001E491F4A126888541D480068401C1C49DD
:103F3000086008460068042806DB00200860164870
:103F40000068401C1449086020E01248007852289C
:103F500003D101211348016110E00E480078562872
:103F60000CD10E490868C11700EB1151091300EE7E
:103F7000101AB8EEC00A0B4981ED080A0020064964
:103F8000086003E000200449086000BF00BF10BDC6
:103F900000100140CC000020C4000020D000002010
:103FA000C80000204001002010B50821334800F06F
:103FB000F7F928B140F22551304800F072F95CE081
:103FC00040F225512D4800F0F8F9012855D140F272
:103FD00025512A4800F065F9284800F066FB284979
:103FE000087008460078C5280FD1002025490860D0
:103FF000254908602548006825490860084600688A
:1040000002F000FD0020214908601E48006820B130
:1040100001280CD002282ED117E019480078C628B4
:1040200004D118480068401C1649086024E0144870
:10403000007841B21748144A126800F8121011486B
:104040000068401C0F49086016E00D4801781148CF
:104050000D4A126800EB42004170012009490860D6
:1040600009480068401C0849086008480068401C6E
:104070000649086000E000BF00BF10BD00440040DA
:10408000A0000020DC000020E000002098000020BC
:10409000D80000204C02002010B540F225516E4897
:1040A00000F08BF901287DD140F225516A4800F0DB
:1040B000F8F8694800F0F9FA68490870684800782B
:1040C000062870D2DFE800F003192E4553B4634888
:1040D00000780D2805D162480078401C60490870BE
:1040E0000AE05E4800784F2803D105205C4908703B
:1040F00002E000205A490870A9E0584800780A28D0
:1041000008D100205749087055480078401C544990
:10411000087006E0514800780D2802D00020504970
:10412000087094E04D4800784F494E4A1278885400
:104130004C480078401C4B49087008460078182805
:1041400006DB0020087046480078401C444908708F
:104150007DE0424800780A2805D141480078401C9B
:104160003F49087002E000203D4908706FE03B487D
:1041700000780D2858D101203C49C1F8B4013A48D3
:1041800090ED000A3A4880ED000A374890ED010AA8
:1041900080ED010A90ED020A80ED020A90ED030A1B
:1041A000344801E054E04EE080ED000A2E4890EDE6
:1041B000040A314880ED000A2E4890ED000A2F488D
:1041C00080ED000A2C4890ED000A2D4880ED000A91
:1041D000274890ED000A2B4880ED000A224890ED18
:1041E000050A80ED050A284880ED000A214890ED77
:1041F000000A02F00DFC204890ED000A02F00EFCCF
:104200001B4890ED000A02F0F1FB02F0D3F91748C9
:1042100080ED1F0A02F04AFA144880ED200A02F0ED
:1042200071F9124880ED1E0A00200D4908700EE059
:1042300000200B490870094800784B2802D1012062
:104240001249086003E000200549087000BF02E041
:10425000014800F02AFA10BD00480040D4000020B8
:10426000D5000020D600002084030020400100205B
:1042700080000020840000208800002074000020BE
:10428000780000207C000020900000209400002096
:1042900001F40072B2F5007F00D100BFCA43028072
:1042A000704710B50022002340F66A14A14200D1E5
:1042B00000BF0A1201249440A3B2DC43048010BD65
:1042C00021B1828942F40052828104E082894DF654
:1042D000FF731A40828170471AB1838A0B4383822D
:1042E00002E0838A8B4383827047000010B5044646
:1042F0002548844208D101211020FFF7ABF80021A6
:104300001020FFF7A7F83EE02048844209D10121A0
:104310004804FFF77FF800214FF40030FFF77AF8E8
:1043200031E01B48844209D101218804FFF772F86B
:1043300000214FF48020FFF76DF824E015488442F7
:1043400009D10121C804FFF765F800214FF40020CE
:10435000FFF760F817E01048844209D101210805F1
:10436000FFF758F800214FF48010FFF753F80AE0E8
:104370000A48844207D101212020FFF76BF8002171
:104380002020FFF767F810BD0010014000440040F6
:1043900000480040004C0040005000400014014024
:1043A00002460020B1F5007F00D100BF13880B400A
:1043B0000BB1012000E00020704770B502460024D8
:1043C00000230025002040F66A16B14200D100BF4C
:1043D000C1F3421501F01F03012606FA03F3012D74
:1043E00002D19689334006E0022D02D1168A33406D
:1043F00001E0968A33400C12012606FA04F416886E
:10440000344013B10CB1012000E0002070BDF0B5C4
:104410000346002400260025002040F66A17B94212
:1044200000D100BF1846C1F3421401F01F06012756
:1044300007FA06F5012C01D10C3004E0022C01D161
:10444000103000E014301AB107682F43076002E013
:104450000768AF430760F0BD2DE9FF4705460E46EC
:104460000024A14600BFA046B08900B100BF2C8A3D
:1044700024F44054F08804432C82AC8941F20C604F
:104480008443B08831890843718908430443AC816F
:10449000AC8A24F44074B0890443AC826846FEF7C9
:1044A000E9FF2048854202D01F48854202D1DDF84D
:1044B0000C9001E0DDF80890A88900F4004040B1BC
:1044C00009EBC90000EB091031684900B0FBF1F7B6
:1044D00007E009EBC90000EB091031688900B0FB67
:1044E000F1F76420B7FBF0F004012009642101FB1F
:1044F0001078A88900F4004040B1322000EBC800D9
:10450000B0FBF1F000F00700044308E0322000EBBC
:1045100008106421B0FBF1F000F00F0004432C817F
:10452000BDE8FF8700100140001401400FB470B5D2
:1045300086B006460CA8019073E00B9800785C28C2
:104540001CD10B98401C0B9000786E2809D0722863
:104550000FD10D21304600F0ADF80B98401C0B90A8
:104560000BE00A21304600F0A5F80B98401C0B9098
:1045700003E00B98401C0B9000BF4BE00B980078B9
:10458000252840D10B98401C0B900078642818D047
:10459000732833D1019810C801900BE02178304680
:1045A00000F088F800BF40213046FFF7F9FE0028F0
:1045B000F9D0641C20780028F0D10B98401C0B9097
:1045C00020E0019820C801900A2202A9284602F0A2
:1045D000E9F802AC0BE02178304600F06BF800BF40
:1045E00040213046FFF7DCFE0028F9D0641C20781B
:1045F0000028F0D10B98401C0B9003E00B98401C56
:104600000B9000BF06E00B9810F8011B0B90304692
:1046100000F050F800BF40213046FFF7C1FE0028EF
:10462000F9D00B980078002887D106B070BC5DF8EF
:1046300014FB000030B52DED048B85B0B0EE408A40
:1046400018EE100A03F0A2F841EC190B53EC192BE9
:104650000AA16846FBF72AFEC5B2002405E01DF852
:10466000040000F03DF8601CC4B2AC42F7DB04A0CB
:1046700000F008F805B0BDEC048B30BD25660000E5
:104680000900000070B5054600240BE0285D18B154
:10469000285D00F025F800E005E0601CC4B2642C41
:1046A00000DD00E0F2E700BF70BD01468888C0F37E
:1046B0000800704730B504460D4600BF80212046F3
:1046C000FFF76EFE0028F9D080212046FFF7E0FDBD
:1046D00040212046FFF7DCFDC5F30800A08030BD77
:1046E00010B5044618481949096844541748006829
:1046F000401C1649086008460068282822D300BFDD
:1047000013491448FEF7BAFB20B91248FEF7ACFB78
:104710000128F5D00E490F48FEF7BAFA00210D48DE
:10472000FEF7EAFA002009490860282206490A48EB
:10473000FBF751FE28210748FEF71CFC0121054824
:10474000FEF7DAFA10BD00003C0300205000002004
:1047500000800028B86002401403002000BFFEE77C
:104760002DE9F04794B081460D4616461F460024B9
:104770003822364906A8FBF773FE05F54070019014
:10478000029000208DF80C008DF80D0008208DF8A7
:104790000E000D960F972E4911914942139100BFBB
:1047A0004EE006A810F834008DF80F0006A830F887
:1047B0003400010A8DF8101006A850F83400010CDE
:1047C0008DF8111006A850F83400000E8DF8120074
:1047D00006A800EBC40001798DF8131006A800EBC1
:1047E000C4008088010A8DF8141006A800EBC400EC
:1047F0004068010C8DF8151006A800EBC400406855
:10480000000E8DF8160001A94846FEF7C3F882464F
:104810004FF000080BE008F1010842F210708045EB
:1048200005D103220BA10E48FFF780FE05E051469B
:104830004846FEF743F90128EDD100BF601CC4B221
:10484000072CAEDB14B0BDE8F08700009C790008AF
:10485000C0E1E400737475636B2025640000000000
:104860000050004010B52DED028B28480068042848
:104870000AD1042226A12848FBF762FD20B927A10E
:104880002848FFF753FE3CE0032227A12248FBF70C
:1048900057FD88BB002005E01F4AC11C515C234A1C
:1048A0001154401C19490968C91E8142F4DC204892
:1048B00090ED000ADFED1F0AB4EEE00AF1EE10FA07
:1048C0001FD21A4800F058F8B0EE408AF0EE608A25
:1048D00051EC180B02F04CF91749C865134800F069
:1048E0004BF8B0EE408AF0EE608A51EC180B02F003
:1048F0003FF91149886604E0FFE710A10948FFF776
:1049000015FE01F09FFCBDEC028B10BD8C00002059
:1049100059580D0A00000000640300204F4B0D0A97
:10492000000000000050004076656C007803002015
:10493000C000002000401C47400100206572726FDB
:10494000720D0A0003B401984100009850EAC1209A
:1049500018BF04204A0D18BF40F0010040F2FF725A
:10496000B2EB515F08BF40F00200012808BF0520EC
:1049700002B070470000000030B583B00446FBF77A
:10498000A4FD9FED090B05468DED000B002221468D
:104990006846FBF7EFFF2846FBF79CFD9DED000BFB
:1049A00003B030BD00000000000000000000000067
:1049B00010B52F499FED2C1B2DED020B84B00598EF
:1049C00020F000408842D8BF9DED040B2DDD294921
:1049D000884209D1049840B94FF00100FBF77AFDF5
:1049E00001F092FB06B010BD05DB9DED040B01F05C
:1049F00077FB06B010BD68469DED040B00F070FF1C
:104A000010F0030004BF9DED021B9DED000B0CD0C8
:104A100001280ED09DED021B9DED000B022817D042
:104A2000012001F0ADFA06B010BD01F075F906B035
:104A300010BD9DED021B9DED000B012001F0A0FAC1
:104A400051EC100B02F088F806B041EC100B10BDD1
:104A500001F062F951EC100B02F07EF806B041EC67
:104A6000100B10BD0000000000000000000000005E
:104A7000FB21E93F0000F07F30B540F2FF742DEDDF
:104A8000048BF0EE608A18EE901A85B0B0EE408A82
:104A90009FED2B9B05468DED008B34EA115147D0DD
:104AA00053EC192B51EC180B02F0A8FA40D02A460F
:104AB00051EC180B02F019FF41EC180B18EE900A9C
:104AC0008DED008B34EA10501CD053EC192B51ECB7
:104AD000180B02F093FA2BD10220FBF7FBFC01F03C
:104AE00033FB10EE901A18EE900A8DED020B8DED4F
:104AF000008B61F31E0003909DED020B05B0BDEC31
:104B0000048B30BD0220FBF7E5FC01F00DFB10EE3D
:104B1000901A18EE900A8DED020B8DED008B61F36B
:104B20001E0003909DED020B05B0BDEC048B30BD63
:104B300005B0B0EE480AF0EE680ABDEC048B30BD5B
:104B400000000000000000002DE9F04D2DED040BE9
:104B50002DED0E8B96B0DDE92550279CDDF890A059
:104B600025F0004624F00048BAF1000F14BF0121DF
:104B7000002101EB4502FC4953184A1093422AD305
:104B8000002814BF0123002303EB44030B44F7491F
:104B90008B4220D358EA00019FEDF59B76D0DFF8D9
:104BA000D8B35D4503D1BAF1000F05D188E0BAF161
:104BB000000F08BF002100D0012101EB450111F5D4
:104BC000001F08D8002814BF0121002101EB440177
:104BD00011F5001F0BD99DED261B9DED240B16B082
:104BE000BDEC0E8B04B0BDE8F04D01F083BA002798
:104BF000002DBCBFE149884521DAE1498845A8BFBD
:104C000002271CDAC3451ADCDE4901EB28511429BE
:104C100008DDC1F1340220FA02F101FA02F2824207
:104C20000DD108E058B9C1F1140228FA02F101FAD5
:104C300002F2424503D101F00101C1F1020756EA37
:104C40000A0124D1002C22DA002D18BF022F01D036
:104C5000012F0AD00220FBF73DFC16B0BDEC0E8BF5
:104C600004B0BDE8F04D01F023BA0220FBF732FC9E
:104C700001F01EFA51EC100B01F06EFF41EC100B2D
:104C800016B0BDEC0E8B04B0BDE8F08D18E09FEDC2
:104C9000BEAB9FEDBF8B002871D1B848804522D1B3
:104CA00005F1804010F5801008BFBAF1000F07D061
:104CB000B3450ADC002CA8BF9DED260BE0DA0DE021
:104CC000B0EE490AF0EE690ADAE7002C06DA9DED4B
:104CD000260B51EC100B01F03FFF6FE0AE4878441B
:104CE00090ED000BCCE7D8454DD1002C48DA2EB121
:104CF00086423AD1BAF1000F42D126E0BAF1000F54
:104D000013D00220FBF7E6FB01F00EFA8DED020B4B
:104D10009DED240B8DED000B10EE900A039961F3CD
:104D20001E0003909DED020BAAE78DED02AB9DEDF9
:104D3000240B1AEE901A10EE900A8DED000B61F321
:104D40001E0003909DED020B9AE78DED028B9DED09
:104D5000240B18EE901A10EE900A8DED000B61F303
:104D60001E0003909DED020B8AE709DA9DED240BEE
:104D700051EC190B53EC102B01F0E8FF1EE020E082
:104D80009DED240B7CE786421BDAB4F1804F0DD0F9
:104D9000A4F10050B0F1FF5013D1002D11DB9DEDB7
:104DA000240B51EC100B01F05DFE07E09DED240B90
:104DB00053EC102B51EC100B00F0C2BC41EC100B6B
:104DC0005EE79DED240B51EC100B01F047FBBAF1AF
:104DD000000FCDE90E0142D19FED710B46B3A6F154
:104DE000E040B0F17F600CD05E4538D1002D00DA94
:104DF000A7B3022F0CBF01204FF0FF3002F069F97A
:104E0000DCE7002D01DD002C0DDA002D01DD002C8A
:104E10001FDB002D16DA002C14DB012F08BF9FEDDD
:104E2000620B3FF42DAFB0EE4A0AF0EE6A0A27E7B4
:104E3000022F18BF002D0CD0012F0AD1002DFFF634
:104E40001FAF06E0002DB8BF002C08DA012F3FF499
:104E500017AFB0EE480AF0EE680A11E71BE0012038
:104E600000EBE57050EA070115D0791EB0EE498AD3
:104E7000F0EE698A084308BF9FED4D8B4E48002530
:104E8000804570DD4D494E48884514DDB0420DDB4C
:104E9000002C19DB2FE00120FBF71CFB16B0BDEC4A
:104EA0000E8B04B0BDE8F04D01F02EB9B34502DC25
:104EB000002C09DC1FE0864202DA002C1BDA03E03A
:104EC0005E452BDD002C16DD0220FBF703FB01F015
:104ED0002BF98DED020B53EC1A2B51EC180B02F051
:104EE0005FF9CDE900010399019861F31E00039079
:104EF0009DED020BC4E60220FBF7ECFA01F024F969
:104F000010EE901A18EE900A8DED020B8DED008BCD
:104F100061F31E0003909DED020BB1E69DED0E0BBB
:104F200053EC192B51EC100B02F046FB9FED260BB6
:104F3000CDE9080153EC102B9DED080B51EC100B43
:104F400002F02EF99FED221B53EC112B02F05CFABC
:104F50009DED081B53EC112B02F022F99FED1E1B57
:104F600053EC112B3CE08CE0FFFF1F00FFFF0F0014
:104F7000000000000000F03F0000F03F0000F07F64
:104F80000000404301FCFFFF000000000000F07F34
:104F900000000000000000006E2E00000000000075
:104FA0000000000000000080000000000000F0FF92
:104FB000000000000000F0BF0000E0410000F043EE
:104FC000FFFFEF3F00000000000000000000D03FA6
:104FD000555555555555D53F000000000000E03FA0
:104FE00002F012FA9DED080B41EC1A0B53EC102B5A
:104FF00051EC100B02F0D4F853EC1A2B02F0D0F85D
:1050000041EC1A0B9FEDFE0B53EC102B9DED080BA2
:1050100051EC100B02F0C4F841EC1B0B9FEDFA0BA6
:1050200051EC1A0B53EC102B02F0BAF841EC1A0BAE
:105030009FEDF70B53EC102B9DED080B51EC100B73
:1050400002F0AEF853EC1A2B02F0B6FA41EC1A0B50
:1050500051EC1B0B53EC1A2B01F0BCFD0690CDE973
:1050600006519DED060B53EC1B2B51EC100B02F07F
:10507000A3FA53EC1A2B02F0C7F941EC100B00F025
:10508000A1B90020B6F5801F0EDA9FEDE30B53ECBB
:10509000102B9DED0E0B51EC100B02F081F8CDE9B9
:1050A0000E016FF034000E4600EB2650A0F2FF37E1
:1050B000C6F31300DA4940F07F6646F04056884256
:1050C000D8BF002408DDD7498142C8BF012403DCD2
:1050D0000024A6F580167F1CD348784400EBC4005A
:1050E0000F9690ED00CB9DED0E0B53EC1C2B51EC6D
:1050F000100B02F061FA9DED0E0B41EC1B0B53EC13
:105100001C2B51EC100B01F065FD41EC100B51EC28
:10511000190B53EC102B01F019FE41EC1D0B51EC57
:105120001B0B53EC1D2B02F03BF841EC1A0BBF4854
:105130008DED10AB7844109590ED000B4FF00050C2
:1051400040EA660000EB84408DED080B00F500207E
:1051500009909DED080B53EC1C2B51EC100B02F049
:105160002BFA9DED0E1B53EC112B02F04DF941EC87
:10517000100B53EC102B9DED100B51EC100B02F0AB
:105180000FF89DED080B41EC1C0B53EC102B9DED23
:10519000100B51EC100B02F003F853EC1B2B02F038
:1051A00033F953EC1C2B02F007FA53EC1D2B01F0E2
:1051B000F7FF41EC1C0B53EC1A2B51EC1A0B01F0CE
:1051C000EFFF41EC1B0B9A480621B0EE4B0AF0EEC4
:1051D0006B0A784400F058FEB0EE401AF0EE601A08
:1051E000B0EE41DAF0EE61DA53EC1B2B51EC1B0B05
:1051F00001F0D6FF53EC1D2B01F0D2FF9DED100BFB
:1052000041EC1B0B53EC1A2B51EC100B01F0E2FCA0
:1052100053EC1C2B01F0C4FF53EC1B2B01F0DAFC08
:105220009DED100B41EC1B0B53EC102B51EC100BB4
:1052300001F0B6FF41EC1D0B9FED7FEB53EC1E2BF5
:1052400001F0C8FC53EC1B2B01F0C4FC0890CDE925
:1052500008519DED080B53EC1E2B51EC100B02F086
:10526000ABF953EC1D2B02F0A7F953EC1B2B02F00A
:10527000CBF89DED080B41EC1D0B53EC102B9DED75
:10528000100B51EC100B01F08BFF41EC1B0B53EC9E
:105290001A2B51EC1D0B01F083FF9DED080B41EC27
:1052A0001A0B53EC102B51EC1C0B01F079FF53EC53
:1052B0001A2B01F08FFC41EC1A0B51EC1B0B53EC39
:1052C0001A2B01F087FC0C90CDE90C519DED0C0BD5
:1052D00053EC1B2B51EC100B02F06EF953EC1A2B14
:1052E00002F092F841EC1B0B9FED550B53EC102B89
:1052F0009DED0C0B51EC100B01F052FF41EC1A0B21
:105300009FED510B51EC1B0B53EC102B01F048FFA0
:1053100041EC1B0B9FED4E0B53EC102B9DED0C0B3A
:1053200051EC100B01F03CFF53EC1B2B01F052FC35
:1053300041EC100B4848784400EBC40090ED001B92
:1053400051EC100B53EC112B01F044FC41EC1B0B06
:10535000384601F0BEFECDE9080153EC1B2B51ECA1
:105360001A0B01F037FC41EC100B3C48784400EB81
:10537000C40090ED00CB51EC100B53EC1C2B01F052
:1053800029FC9DED081B53EC112B01F023FC06902A
:10539000CDE906519DED080B53EC102B9DED060B4E
:1053A00051EC100B02F008F953EC1C2B02F004F93D
:1053B00053EC1A2B02F000F953EC1B2B02F024F8EB
:1053C00041EC100B9DED261B53EC102B8DED001BBB
:1053D00000959DED260B51EC100B01F0E1FE9DEDCB
:1053E000000B41EC1A0B53EC102B9DED260B51ECEE
:1053F000100B02F0E1F89DED061B53EC112B2FE092
:10540000000000604715F73FFE822B654715F73F08
:1054100044DF5DF80BAE543E000000000000404346
:105420008E9803007AB60B00BA290000182A0000F3
:10543000F22800000000000000000000000008400A
:10544000000000E009C7EE3FFD033ADC09C7EE3F6C
:10545000F5015B14E02F3EBE7E27000038270000D8
:1054600001F09EFE53EC1A2B01F0B4FB9DED060BF0
:1054700041EC1A0B53EC102B9DED000B51EC100B73
:1054800001F08EFECDE90C019DED0C0B51EC1A0BD9
:1054900053EC102B01F09EFBCDE902010C46AA490A
:1054A0008C422FDB611A084318D19DED0C0B53EC95
:1054B000102B9DED020B51EC100B02F07DF841EC2E
:1054C0001B0B9FEDA30B51EC1A0B53EC102B01F0AF
:1054D00081FB53EC1B2B01F061FF2DD20220FAF768
:1054E000F9FF00F021FE10EE901A18EE900A8DEDF3
:1054F000020B8DED008B61F31E0003909DED020BFE
:10550000FFF7BEBB944A24F00041914214D3934963
:10551000214408437FF4EFAC9DED0C0B53EC102BB2
:105520009DED020B51EC100B02F046F853EC1A2BD8
:1055300001F034FF7FF6DFAC24F000408849894A4F
:10554000002601EB205182422BDA481C4FF48011D7
:1055500021FA00F02044844AC0F30A517A44A1F2AF
:10556000FF3192ED000B814A8DED080BCA4020EA15
:105570000202C0F3130040F48010C1F1140120FABC
:1055800001F60992002CB8BF76429DED080B53EC52
:10559000102B9DED0C0B51EC100B02F00DF8CDE92A
:1055A0000C019DED0C0B51EC1A0B53EC102B01F080
:1055B00011FB9FED6F0B0890CDE9085153EC102BB8
:1055C0009DED080B51EC100B01F0EAFD41EC1B0BBB
:1055D0009FED690B53EC102B9DED080B51EC100B5C
:1055E00001F0DEFD9DED0C0B41EC1C0B53EC102B80
:1055F0009DED080B51EC100B01F0DEFF53EC1A2B64
:1056000001F002FF9FED5E1B53EC112B01F0C8FD72
:1056100053EC1C2B01F0DEFA41EC1A0B51EC1B0B86
:1056200053EC1A2B01F0D6FACDE902019DED020BE5
:1056300053EC1B2B51EC100B01F0BEFF53EC1A2B5B
:1056400001F0E2FE9DED020B41EC1A0B53EC102B26
:1056500051EC100B01F0A4FDCDE908014A489DED85
:10566000080B0521784400F00FFC9DED081B51EC60
:10567000100B53EC112B01F093FD9DED021B53EC2D
:10568000112B01F0C1FECDE906019DED020B53EC9B
:105690001A2B51EC100B01F083FD53EC1A2B01F087
:1056A00099FA9FED3B0B41EC1A0B53EC102B9DED3F
:1056B000060B51EC100B01F07FFF9DED060B41EC4A
:1056C0001B0B53EC102B9DED020B51EC100B01F05A
:1056D00067FD53EC1B2B01F039FB53EC1A2B01F047
:1056E0006BFF9DED021B53EC112B01F065FF53EC9A
:1056F000192B01F089FECDE9020101EB06500115DD
:105700000029C8BF039015DC9DED020B324651EC19
:10571000100B02F0EAF8FFF715F9042808BF00F0B3
:1057200013FD32469DED020B51EC100B02F0DDF83B
:10573000CDE902019DED020B51EC180B53EC102B3F
:1057400001F02EFDFFF73ABB000090400000000082
:10575000FE822B654715973C00CC904000346F3F8C
:1057600001FCFFFF0000E03FF0250000FFFF0F00FD
:1057700000000000432EE63F396CA80C615C20BE9F
:10578000EF39FAFE422EE63F9024000000000000B0
:10579000000000000000004010B52F499FED2C1BB9
:1057A0002DED020B84B0059820F000408842DCBF4C
:1057B00000209DED040B32DD2849884209D1049870
:1057C00040B94FF00100FAF785FE00F09DFC06B0ED
:1057D00010BD05DB9DED040B00F082FC06B010BD92
:1057E00068469DED040B00F07BF810F0030011D02B
:1057F000012818D09DED021B9DED000B02281AD048
:1058000000F08AFA51EC100B01F0A6F906B041EC59
:10581000100B10BD9DED021B9DED000B012000F053
:10582000AFFB06B010BD9DED021B9DED000B00F01F
:1058300073FA06B010BD012000F0A2FB51EC100B72
:1058400001F08AF906B041EC100B10BD0000000019
:105850000000000000000000FB21E93F0000F07F95
:1058600000B52DED048BB0EE409AF0EE609A83B057
:1058700051EC190B01F0D4FD41EC180B18EE100A95
:1058800018EE901A8DED008B002818BF01200843F8
:1058900020F00040C0F17F6000F1E040C00F14D064
:1058A00019EE101A19EE900A8DED009B002918BF11
:1058B0000121084320F00040C0F17F6000F1E0408A
:1058C000C00F04BF0120FAF705FEB0EE480A03B08E
:1058D000F0EE680ABDEC048B00BD00000000000083
:1058E0002DE9F14F04462DED020B2DED088B8AB00A
:1058F0009FEDE70B80ED020B139EE74826F0004575
:1059000085420ADC9DED120B002084ED000B0AB0ED
:10591000BDEC088B03B0BDE8F08FE0489FEDE0AB35
:105920009FEDE1BBA84247DDE14F9FEDE39B9FED7B
:10593000E48B9DED120B53EC1A2B51EC100B002E47
:105940001CDD01F039FE41EC100BBD4208D053ECD8
:105950001B2B51EC100B01F02FFEC4E900010BE0F2
:1059600053EC192B51EC100B01F026FE53EC182BC5
:1059700001F022FEC4E900010120C8E701F02AF984
:1059800041EC100BBD4208D053EC1B2B51EC100B1B
:1059900001F020F9C4E900010BE053EC192B51ECA4
:1059A000100B01F017F953EC182B01F013F9C4E9AF
:1059B00000014FF0FF30AAE7C348A84279DB9DED14
:1059C000120B51EC100B00F049FD41EC180B9FED50
:1059D000C00B53EC102B01F0E3FB9FEDBF1B53EC0E
:1059E000112B01F0F7F801F045FB074601F071FBC0
:1059F00041EC190B53EC1A2B01F0D2FB53EC182B92
:105A000001F002FD41EC180B53EC1B2B51EC190B70
:105A100001F0C6FBDFF8C8A241EC100B4FEA1558A5
:105A20000125FA4453EC102B51EC180B01F0C4FD86
:105A3000032DC4E900013DD0C1F30A5005EB451127
:105A4000A8EB00001139814234DA0AEB051BB0EEF5
:105A500048AA9BED000BF0EE68AA53EC102B51EC1A
:105A6000190B01F09DFB41EC1B0B51EC1A0B53EC95
:105A70001B2B01F0A1FD41EC180B51EC1A0B53EC60
:105A8000182B01F099FD53EC1B2B01F095FD9BEDBC
:105A9000020B41EC1A0B53EC102B51EC190B01F0DB
:105AA0007FFB53EC1A2B01F087FD41EC100B6D1CB2
:105AB000B8E70EE0002EA8BF3846BFF628AF94ED39
:105AC000000B51EC100B01F047F8C4E900017842DB
:105AD0001DE7C6F3130040F4801EC6F30A50A0F27F
